{
  "_format": "hh-sol-artifact-1",
  "contractName": "ChallengeFactory",
  "sourceName": "src/ChallengeFactory.sol",
  "abi": [
    {
      "inputs": [
        {
          "internalType": "address payable",
          "name": "_stakeEscrow",
          "type": "address"
        },
        {
          "internalType": "address",
          "name": "_admin",
          "type": "address"
        },
        {
          "internalType": "address",
          "name": "_platformFeeRecipient",
          "type": "address"
        }
      ],
      "stateMutability": "nonpayable",
      "type": "constructor"
    },
    {
      "inputs": [],
      "name": "ECDSAInvalidSignature",
      "type": "error"
    },
    {
      "inputs": [
        {
          "internalType": "uint256",
          "name": "length",
          "type": "uint256"
        }
      ],
      "name": "ECDSAInvalidSignatureLength",
      "type": "error"
    },
    {
      "inputs": [
        {
          "internalType": "bytes32",
          "name": "s",
          "type": "bytes32"
        }
      ],
      "name": "ECDSAInvalidSignatureS",
      "type": "error"
    },
    {
      "inputs": [
        {
          "internalType": "address",
          "name": "owner",
          "type": "address"
        }
      ],
      "name": "OwnableInvalidOwner",
      "type": "error"
    },
    {
      "inputs": [
        {
          "internalType": "address",
          "name": "account",
          "type": "address"
        }
      ],
      "name": "OwnableUnauthorizedAccount",
      "type": "error"
    },
    {
      "inputs": [],
      "name": "ReentrancyGuardReentrantCall",
      "type": "error"
    },
    {
      "inputs": [
        {
          "internalType": "address",
          "name": "token",
          "type": "address"
        }
      ],
      "name": "SafeERC20FailedOperation",
      "type": "error"
    },
    {
      "anonymous": false,
      "inputs": [
        {
          "indexed": true,
          "internalType": "address",
          "name": "newAdmin",
          "type": "address"
        }
      ],
      "name": "AdminUpdated",
      "type": "event"
    },
    {
      "anonymous": false,
      "inputs": [
        {
          "indexed": true,
          "internalType": "uint256",
          "name": "challengeId",
          "type": "uint256"
        },
        {
          "indexed": true,
          "internalType": "address",
          "name": "creator",
          "type": "address"
        },
        {
          "indexed": true,
          "internalType": "address",
          "name": "paymentToken",
          "type": "address"
        },
        {
          "indexed": false,
          "internalType": "uint256",
          "name": "stakeAmount",
          "type": "uint256"
        },
        {
          "indexed": false,
          "internalType": "uint256",
          "name": "pointsReward",
          "type": "uint256"
        }
      ],
      "name": "ChallengeCreatedGroup",
      "type": "event"
    },
    {
      "anonymous": false,
      "inputs": [
        {
          "indexed": true,
          "internalType": "uint256",
          "name": "challengeId",
          "type": "uint256"
        },
        {
          "indexed": true,
          "internalType": "address",
          "name": "creator",
          "type": "address"
        },
        {
          "indexed": true,
          "internalType": "address",
          "name": "participant",
          "type": "address"
        },
        {
          "indexed": false,
          "internalType": "address",
          "name": "paymentToken",
          "type": "address"
        },
        {
          "indexed": false,
          "internalType": "uint256",
          "name": "stakeAmount",
          "type": "uint256"
        },
        {
          "indexed": false,
          "internalType": "uint256",
          "name": "pointsReward",
          "type": "uint256"
        }
      ],
      "name": "ChallengeCreatedP2P",
      "type": "event"
    },
    {
      "anonymous": false,
      "inputs": [
        {
          "indexed": true,
          "internalType": "uint256",
          "name": "challengeId",
          "type": "uint256"
        },
        {
          "indexed": true,
          "internalType": "address",
          "name": "winner",
          "type": "address"
        },
        {
          "indexed": true,
          "internalType": "address",
          "name": "paymentToken",
          "type": "address"
        },
        {
          "indexed": false,
          "internalType": "uint256",
          "name": "stakeAmount",
          "type": "uint256"
        },
        {
          "indexed": false,
          "internalType": "uint256",
          "name": "pointsAwarded",
          "type": "uint256"
        }
      ],
      "name": "ChallengeResolved",
      "type": "event"
    },
    {
      "anonymous": false,
      "inputs": [
        {
          "indexed": true,
          "internalType": "address",
          "name": "previousOwner",
          "type": "address"
        },
        {
          "indexed": true,
          "internalType": "address",
          "name": "newOwner",
          "type": "address"
        }
      ],
      "name": "OwnershipTransferred",
      "type": "event"
    },
    {
      "anonymous": false,
      "inputs": [
        {
          "indexed": true,
          "internalType": "address",
          "name": "token",
          "type": "address"
        },
        {
          "indexed": false,
          "internalType": "bool",
          "name": "enabled",
          "type": "bool"
        }
      ],
      "name": "PaymentTokenToggled",
      "type": "event"
    },
    {
      "anonymous": false,
      "inputs": [
        {
          "indexed": true,
          "internalType": "address",
          "name": "token",
          "type": "address"
        },
        {
          "indexed": false,
          "internalType": "uint256",
          "name": "amount",
          "type": "uint256"
        }
      ],
      "name": "PlatformFeeCollected",
      "type": "event"
    },
    {
      "anonymous": false,
      "inputs": [
        {
          "indexed": false,
          "internalType": "uint256",
          "name": "newPercentage",
          "type": "uint256"
        }
      ],
      "name": "PlatformFeePercentageUpdated",
      "type": "event"
    },
    {
      "anonymous": false,
      "inputs": [
        {
          "indexed": true,
          "internalType": "address",
          "name": "newRecipient",
          "type": "address"
        }
      ],
      "name": "PlatformFeeRecipientUpdated",
      "type": "event"
    },
    {
      "anonymous": false,
      "inputs": [
        {
          "indexed": true,
          "internalType": "address",
          "name": "token",
          "type": "address"
        },
        {
          "indexed": false,
          "internalType": "uint256",
          "name": "amount",
          "type": "uint256"
        },
        {
          "indexed": true,
          "internalType": "address",
          "name": "recipient",
          "type": "address"
        }
      ],
      "name": "PlatformFeeWithdrawn",
      "type": "event"
    },
    {
      "anonymous": false,
      "inputs": [
        {
          "indexed": true,
          "internalType": "uint256",
          "name": "challengeId",
          "type": "uint256"
        },
        {
          "indexed": true,
          "internalType": "address",
          "name": "user",
          "type": "address"
        },
        {
          "indexed": true,
          "internalType": "address",
          "name": "paymentToken",
          "type": "address"
        },
        {
          "indexed": false,
          "internalType": "uint256",
          "name": "amount",
          "type": "uint256"
        }
      ],
      "name": "StakeClaimed",
      "type": "event"
    },
    {
      "anonymous": false,
      "inputs": [
        {
          "indexed": true,
          "internalType": "address",
          "name": "token",
          "type": "address"
        },
        {
          "indexed": false,
          "internalType": "bool",
          "name": "blacklisted",
          "type": "bool"
        }
      ],
      "name": "TokenBlacklisted",
      "type": "event"
    },
    {
      "anonymous": false,
      "inputs": [
        {
          "indexed": true,
          "internalType": "address",
          "name": "token",
          "type": "address"
        },
        {
          "indexed": false,
          "internalType": "bool",
          "name": "verified",
          "type": "bool"
        }
      ],
      "name": "TokenVerified",
      "type": "event"
    },
    {
      "inputs": [
        {
          "internalType": "uint256",
          "name": "challengeId",
          "type": "uint256"
        }
      ],
      "name": "acceptP2PChallenge",
      "outputs": [],
      "stateMutability": "payable",
      "type": "function"
    },
    {
      "inputs": [],
      "name": "admin",
      "outputs": [
        {
          "internalType": "address",
          "name": "",
          "type": "address"
        }
      ],
      "stateMutability": "view",
      "type": "function"
    },
    {
      "inputs": [
        {
          "internalType": "address",
          "name": "token",
          "type": "address"
        },
        {
          "internalType": "bool",
          "name": "blacklisted",
          "type": "bool"
        }
      ],
      "name": "blacklistToken",
      "outputs": [],
      "stateMutability": "nonpayable",
      "type": "function"
    },
    {
      "inputs": [
        {
          "internalType": "address",
          "name": "",
          "type": "address"
        }
      ],
      "name": "blacklistedTokens",
      "outputs": [
        {
          "internalType": "bool",
          "name": "",
          "type": "bool"
        }
      ],
      "stateMutability": "view",
      "type": "function"
    },
    {
      "inputs": [
        {
          "internalType": "uint256",
          "name": "",
          "type": "uint256"
        }
      ],
      "name": "challenges",
      "outputs": [
        {
          "internalType": "uint256",
          "name": "id",
          "type": "uint256"
        },
        {
          "internalType": "enum ChallengeFactory.ChallengeType",
          "name": "challengeType",
          "type": "uint8"
        },
        {
          "internalType": "address",
          "name": "creator",
          "type": "address"
        },
        {
          "internalType": "address",
          "name": "participant",
          "type": "address"
        },
        {
          "internalType": "address",
          "name": "paymentToken",
          "type": "address"
        },
        {
          "internalType": "uint256",
          "name": "stakeAmount",
          "type": "uint256"
        },
        {
          "internalType": "uint256",
          "name": "pointsReward",
          "type": "uint256"
        },
        {
          "internalType": "enum ChallengeFactory.ChallengeStatus",
          "name": "status",
          "type": "uint8"
        },
        {
          "internalType": "address",
          "name": "winner",
          "type": "address"
        },
        {
          "internalType": "uint256",
          "name": "createdAt",
          "type": "uint256"
        },
        {
          "internalType": "uint256",
          "name": "resolvedAt",
          "type": "uint256"
        },
        {
          "internalType": "string",
          "name": "metadataURI",
          "type": "string"
        }
      ],
      "stateMutability": "view",
      "type": "function"
    },
    {
      "inputs": [
        {
          "internalType": "uint256",
          "name": "challengeId",
          "type": "uint256"
        }
      ],
      "name": "claimStake",
      "outputs": [],
      "stateMutability": "nonpayable",
      "type": "function"
    },
    {
      "inputs": [
        {
          "internalType": "address",
          "name": "paymentToken",
          "type": "address"
        },
        {
          "internalType": "uint256",
          "name": "stakeAmount",
          "type": "uint256"
        },
        {
          "internalType": "uint256",
          "name": "pointsReward",
          "type": "uint256"
        },
        {
          "internalType": "string",
          "name": "metadataURI",
          "type": "string"
        }
      ],
      "name": "createGroupChallenge",
      "outputs": [
        {
          "internalType": "uint256",
          "name": "",
          "type": "uint256"
        }
      ],
      "stateMutability": "nonpayable",
      "type": "function"
    },
    {
      "inputs": [
        {
          "internalType": "address",
          "name": "participant",
          "type": "address"
        },
        {
          "internalType": "address",
          "name": "paymentToken",
          "type": "address"
        },
        {
          "internalType": "uint256",
          "name": "stakeAmount",
          "type": "uint256"
        },
        {
          "internalType": "uint256",
          "name": "pointsReward",
          "type": "uint256"
        },
        {
          "internalType": "string",
          "name": "metadataURI",
          "type": "string"
        }
      ],
      "name": "createP2PChallenge",
      "outputs": [
        {
          "internalType": "uint256",
          "name": "",
          "type": "uint256"
        }
      ],
      "stateMutability": "payable",
      "type": "function"
    },
    {
      "inputs": [
        {
          "internalType": "uint256",
          "name": "challengeId",
          "type": "uint256"
        }
      ],
      "name": "getChallenge",
      "outputs": [
        {
          "components": [
            {
              "internalType": "uint256",
              "name": "id",
              "type": "uint256"
            },
            {
              "internalType": "enum ChallengeFactory.ChallengeType",
              "name": "challengeType",
              "type": "uint8"
            },
            {
              "internalType": "address",
              "name": "creator",
              "type": "address"
            },
            {
              "internalType": "address",
              "name": "participant",
              "type": "address"
            },
            {
              "internalType": "address",
              "name": "paymentToken",
              "type": "address"
            },
            {
              "internalType": "uint256",
              "name": "stakeAmount",
              "type": "uint256"
            },
            {
              "internalType": "uint256",
              "name": "pointsReward",
              "type": "uint256"
            },
            {
              "internalType": "enum ChallengeFactory.ChallengeStatus",
              "name": "status",
              "type": "uint8"
            },
            {
              "internalType": "address",
              "name": "winner",
              "type": "address"
            },
            {
              "internalType": "uint256",
              "name": "createdAt",
              "type": "uint256"
            },
            {
              "internalType": "uint256",
              "name": "resolvedAt",
              "type": "uint256"
            },
            {
              "internalType": "string",
              "name": "metadataURI",
              "type": "string"
            }
          ],
          "internalType": "struct ChallengeFactory.Challenge",
          "name": "",
          "type": "tuple"
        }
      ],
      "stateMutability": "view",
      "type": "function"
    },
    {
      "inputs": [
        {
          "internalType": "address",
          "name": "token",
          "type": "address"
        }
      ],
      "name": "getPlatformFeeBalance",
      "outputs": [
        {
          "internalType": "uint256",
          "name": "",
          "type": "uint256"
        }
      ],
      "stateMutability": "view",
      "type": "function"
    },
    {
      "inputs": [
        {
          "internalType": "uint256",
          "name": "",
          "type": "uint256"
        },
        {
          "internalType": "uint256",
          "name": "",
          "type": "uint256"
        }
      ],
      "name": "groupChallengeParticipants",
      "outputs": [
        {
          "internalType": "address",
          "name": "user",
          "type": "address"
        },
        {
          "internalType": "bool",
          "name": "side",
          "type": "bool"
        },
        {
          "internalType": "uint256",
          "name": "stakeAmount",
          "type": "uint256"
        },
        {
          "internalType": "bool",
          "name": "claimed",
          "type": "bool"
        }
      ],
      "stateMutability": "view",
      "type": "function"
    },
    {
      "inputs": [
        {
          "internalType": "address",
          "name": "token",
          "type": "address"
        }
      ],
      "name": "isTokenBlacklisted",
      "outputs": [
        {
          "internalType": "bool",
          "name": "",
          "type": "bool"
        }
      ],
      "stateMutability": "view",
      "type": "function"
    },
    {
      "inputs": [
        {
          "internalType": "address",
          "name": "token",
          "type": "address"
        }
      ],
      "name": "isTokenVerified",
      "outputs": [
        {
          "internalType": "bool",
          "name": "",
          "type": "bool"
        }
      ],
      "stateMutability": "view",
      "type": "function"
    },
    {
      "inputs": [],
      "name": "nextChallengeId",
      "outputs": [
        {
          "internalType": "uint256",
          "name": "",
          "type": "uint256"
        }
      ],
      "stateMutability": "view",
      "type": "function"
    },
    {
      "inputs": [],
      "name": "owner",
      "outputs": [
        {
          "internalType": "address",
          "name": "",
          "type": "address"
        }
      ],
      "stateMutability": "view",
      "type": "function"
    },
    {
      "inputs": [
        {
          "internalType": "uint256",
          "name": "",
          "type": "uint256"
        }
      ],
      "name": "p2pChallengeAmounts",
      "outputs": [
        {
          "internalType": "uint256",
          "name": "",
          "type": "uint256"
        }
      ],
      "stateMutability": "view",
      "type": "function"
    },
    {
      "inputs": [
        {
          "internalType": "address",
          "name": "",
          "type": "address"
        }
      ],
      "name": "platformFeeBalance",
      "outputs": [
        {
          "internalType": "uint256",
          "name": "",
          "type": "uint256"
        }
      ],
      "stateMutability": "view",
      "type": "function"
    },
    {
      "inputs": [],
      "name": "platformFeePercentage",
      "outputs": [
        {
          "internalType": "uint256",
          "name": "",
          "type": "uint256"
        }
      ],
      "stateMutability": "view",
      "type": "function"
    },
    {
      "inputs": [],
      "name": "platformFeeRecipient",
      "outputs": [
        {
          "internalType": "address",
          "name": "",
          "type": "address"
        }
      ],
      "stateMutability": "view",
      "type": "function"
    },
    {
      "inputs": [],
      "name": "renounceOwnership",
      "outputs": [],
      "stateMutability": "nonpayable",
      "type": "function"
    },
    {
      "inputs": [
        {
          "internalType": "uint256",
          "name": "challengeId",
          "type": "uint256"
        },
        {
          "internalType": "address",
          "name": "winner",
          "type": "address"
        },
        {
          "internalType": "bytes",
          "name": "signature",
          "type": "bytes"
        }
      ],
      "name": "resolveChallenge",
      "outputs": [],
      "stateMutability": "nonpayable",
      "type": "function"
    },
    {
      "inputs": [
        {
          "internalType": "address",
          "name": "newAdmin",
          "type": "address"
        }
      ],
      "name": "setAdmin",
      "outputs": [],
      "stateMutability": "nonpayable",
      "type": "function"
    },
    {
      "inputs": [
        {
          "internalType": "uint256",
          "name": "newPercentage",
          "type": "uint256"
        }
      ],
      "name": "setPlatformFeePercentage",
      "outputs": [],
      "stateMutability": "nonpayable",
      "type": "function"
    },
    {
      "inputs": [
        {
          "internalType": "address",
          "name": "newRecipient",
          "type": "address"
        }
      ],
      "name": "setPlatformFeeRecipient",
      "outputs": [],
      "stateMutability": "nonpayable",
      "type": "function"
    },
    {
      "inputs": [],
      "name": "stakeEscrow",
      "outputs": [
        {
          "internalType": "contract ChallengeEscrow",
          "name": "",
          "type": "address"
        }
      ],
      "stateMutability": "view",
      "type": "function"
    },
    {
      "inputs": [
        {
          "internalType": "address",
          "name": "newOwner",
          "type": "address"
        }
      ],
      "name": "transferOwnership",
      "outputs": [],
      "stateMutability": "nonpayable",
      "type": "function"
    },
    {
      "inputs": [
        {
          "internalType": "address",
          "name": "",
          "type": "address"
        }
      ],
      "name": "verifiedTokens",
      "outputs": [
        {
          "internalType": "bool",
          "name": "",
          "type": "bool"
        }
      ],
      "stateMutability": "view",
      "type": "function"
    },
    {
      "inputs": [
        {
          "internalType": "address",
          "name": "token",
          "type": "address"
        },
        {
          "internalType": "bool",
          "name": "verified",
          "type": "bool"
        }
      ],
      "name": "verifyToken",
      "outputs": [],
      "stateMutability": "nonpayable",
      "type": "function"
    },
    {
      "inputs": [
        {
          "internalType": "address",
          "name": "token",
          "type": "address"
        }
      ],
      "name": "withdrawPlatformFees",
      "outputs": [],
      "stateMutability": "nonpayable",
      "type": "function"
    },
    {
      "stateMutability": "payable",
      "type": "receive"
    }
  ],
  "bytecode": "0x608034620001d857601f620024a838819003918201601f191683019291906001600160401b03841183851017620001dd578160609284926040968752833981010312620001d85780516001600160a01b038082169291839003620001d85762000078846200007060208501620001f3565b9301620001f3565b9060016000553315620001c05760018054336001600160a01b0319808316821790935587519295929184167f8be0079c531659141344cd1fd0a4f28419497f9722a3daafe3b4186f6b6457e0600080a36001600555600a60065585156200018d57508116918215620001595716928315620001155782600254161760025581600354161760035560045416176004555161229f9081620002098239f35b845162461bcd60e51b815260206004820152601560248201527f496e76616c69642066656520726563697069656e7400000000000000000000006044820152606490fd5b855162461bcd60e51b815260206004820152600d60248201526c24b73b30b634b21030b236b4b760991b6044820152606490fd5b62461bcd60e51b815260206004820152600e60248201526d496e76616c696420657363726f7760901b6044820152606490fd5b8451631e4fbdf760e01b815260006004820152602490fd5b600080fd5b634e487b7160e01b600052604160045260246000fd5b51906001600160a01b0382168203620001d85756fe608080604052600436101561001d575b50361561001b57600080fd5b005b600090813560e01c908163017b975b14611b67575080630d8d2d0814611af15780631871e24314611a4e578063190e4c55146119dd578063199a714e146115235780631baaaffe146102395780631bdd4b741461130a57806344c7d6ef146111685780635c8b5f44146107a257806368a2b7de14610bb557806369249fba1461113e578063704b6c021461109f578063715018a61461104157806379a1152214610c7a5780638333903e14610bee57806386ff06e714610bb55780638da5cb5b14610b8c5780638f1d377614610aaf578063c25d8b7b146107ff578063cdd78cfc146107e1578063ce9be9ba146107a2578063d2d6648214610725578063d35202e814610479578063eb13554f14610450578063ec3889b514610278578063ec867b2714610239578063f2fde38b146101ae578063f851a440146101855763fc67aa500361000f57346101825780600319360112610182576020600554604051908152f35b80fd5b50346101825780600319360112610182576003546040516001600160a01b039091168152602090f35b5034610182576020366003190112610182576101c8611bbe565b6101d0611e0b565b6001600160a01b0390811690811561022057600154826001600160601b0360a01b821617600155167f8be0079c531659141344cd1fd0a4f28419497f9722a3daafe3b4186f6b6457e0600080a380f35b604051631e4fbdf760e01b815260048101849052602490fd5b50346101825760203660031901126101825760209060ff906040906001600160a01b03610264611bbe565b168152600a84522054166040519015158152f35b50346101825760208060031936011261044c57610293611bbe565b9061029c611e0b565b6102a4611f77565b6001600160a01b03918216808452600c8252604084205492909190831561041157828552600c8252846040812055821560001461038a57848080808785600454165af13d15610385573d6102f781611c71565b906103056040519283611c4f565b815286843d92013e5b1561034a57907f08273342a380b5301480c28ba6b7dfb7bfda23bfd871714c935e45a15e9cb823915b6004541693604051908152a36001815580f35b60405162461bcd60e51b8152600481018390526013602482015272115512081d1c985b9cd9995c8819985a5b1959606a1b6044820152606490fd5b61030e565b60045460405163a9059cbb60e01b8185015290821660248201526044808201869052815291906080830167ffffffffffffffff8111848210176103fb577f08273342a380b5301480c28ba6b7dfb7bfda23bfd871714c935e45a15e9cb823936103f6916040528561207d565b610337565b634e487b7160e01b600052604160045260246000fd5b60405162461bcd60e51b81526004810183905260136024820152724e6f206665657320746f20776974686472617760681b6044820152606490fd5b5080fd5b50346101825780600319360112610182576004546040516001600160a01b039091168152602090f35b5060208060031936011261044c57600435610492611f77565b808352600782526040832060018101549160ff83166002811015610711576001036106d857600682019360ff85541660058110156106c45761068b576001600160a01b039360081c8416331461063b5760028301805487908681161561062257505054841633036105de5750908492915b600460038301938085541680156000146105ba5750610526828501543414611fe6565b806002541694541692015492803b156105b657604051637a443e3d60e11b81523360048201526001600160a01b03939093166024840152604483019390935260648201529082908290608490829084905af180156105ab57610597575b5050600160ff198254161790556001815580f35b6105a090611c1e565b61044c578138610583565b6040513d84823e3d90fd5b8480fd5b6105d9906105c83415611f9a565b826002541684870154913390612028565b610526565b6064906040519062461bcd60e51b82526004820152601d60248201527f4e6f742074686520737065636966696564207061727469636970616e740000006044820152fd5b6001600160a01b03191633179091559392919050610503565b6084906040519062461bcd60e51b82526004820152602360248201527f43726561746f722063616e6e6f7420616363657074206f776e206368616c6c656044820152626e676560e81b6064820152fd5b6064906040519062461bcd60e51b82526004820152601260248201527121b430b63632b733b2903737ba1037b832b760711b6044820152fd5b634e487b7160e01b87526021600452602487fd5b60405162461bcd60e51b81526004810185905260116024820152704e6f7420503250206368616c6c656e676560781b6044820152606490fd5b634e487b7160e01b86526021600452602486fd5b50346101825760207fd128f4457567637d4d9a19a54a44a6e47ba1ed0cc875b3cff7b762c8bb27b41661075736611bef565b9290610761611e0b565b6001600160a01b03169261077684151561222d565b838552600a825261079681604087209060ff801983541691151516179055565b6040519015158152a280f35b50346101825760203660031901126101825760209060ff906040906001600160a01b036107cd611bbe565b168152600b84522054166040519015158152f35b50346101825780600319360112610182576020600654604051908152f35b503461018257608036600319011261018257610819611bbe565b67ffffffffffffffff916024359190604435606435858111610aab57610843903690600401611cfd565b94909361084e611e0b565b610856611f77565b6001600160a01b0316918215610a6e57828452602096600b885261088160ff60408720541615611e37565b61088c831515611e7a565b610897821515611eba565b6108a56101f4831115611f06565b600554966108b288611f52565b6005558786526007895260408620888155600180820180546001600160a81b0319163360081b610100600160a81b0316179055979060099060ff1960038201896001600160601b0360a01b8254161790558760048301558660058301556006820190815416905542600782015501928211610a5a5781906109338454611d2b565b601f8111610a0a575b508790601f83116001146109aa57889261099f575b5050600019600383901b1c191690871b1790555b60405191825286820152847fac61621ed399481a7fdd906a7b94c9d3667dee8643e9c121e783b860a3f2282d60403393a455604051908152f35b013590503880610951565b8489528b89208a945091601f1984168a8e5b8282106109f357505084116109d9575b505050811b019055610965565b0135600019600384901b60f8161c191690553880806109cc565b8385013586558d979095019492830192018e6109bc565b9091508388528a8820601f840160051c8101918c8510610a50575b84939291601f8c920160051c01915b828110610a4257505061093c565b8a81558594508b9101610a34565b9091508190610a25565b634e487b7160e01b87526041600452602487fd5b60405162461bcd60e51b815260206004820152601560248201527424b73b30b634b2103830bcb6b2b73a103a37b5b2b760591b6044820152606490fd5b8280fd5b503461018257602036600319011261018257604060209160043581526007835220610b8881549160018101549060018060a01b03806002830154169080600384015416600484015460058501549060068601549260078701549585610b1b600960088b01549a01611d65565b99610b336040519e8f9e8f9081520160ff8316611c8d565b60081c1660408c015260608b015260808a015260a089015260c0880152610b6060e0880160ff8316611cb0565b60081c1661010086015261012085015261014084015261018080610160850152830190611cbd565b0390f35b50346101825780600319360112610182576001546040516001600160a01b039091168152602090f35b5034610182576020366003190112610182576020906040906001600160a01b03610bdd611bbe565b168152600c83522054604051908152f35b503461018257602036600319011261018257600435610c0b611e0b565b6127108111610c46576020817fd0a5ddfa06600c6481dcd2923a572827c06e53859f23f7ddab41ff3144ee868792600655604051908152a180f35b60405162461bcd60e51b815260206004820152600c60248201526b08ccaca40e8dede40d0d2ced60a31b6044820152606490fd5b5060a036600319011261018257610c8f611bbe565b610c97611bd9565b67ffffffffffffffff916084358381116105b657610cb9903690600401611cfd565b610cc4949194611f77565b6001600160a01b038316610fec575b6001600160a01b0384168652600b6020526040862054610cf69060ff1615611e37565b610d036044351515611e7a565b610d106064351515611eba565b610d206101f46064351115611f06565b6001600160a01b038416610fbd57610d3b6044353414611fe6565b60055494610d4886611f52565b600555858752600760205260408720868155600180820180546001600160a81b0319163360081b610100600160a81b03161790911790559260ff196002850180546001600160a01b038881166001600160a01b031992831617909255600387018054928a1692909116919091179055604435600486015560643560058601556006850180549190911690554260078501558211610a5a57610dec6009840154611d2b565b601f8111610f79575b508690601f8311600114610f0c5760099291889183610f01575b50508160011b916000199060031b1c1916179101555b6002546001600160a01b0316803b156105b657604051637a443e3d60e11b81523360048201526001600160a01b03841660248201526044803590820152606481018590529085908290608490829084905af18015610ef657610ede575b509260019160209460405191848060a01b03168252604435868301526064356040830152838060a01b031690847ff4f5a9f479b06cd99960b03cddc4864cb98eaa763a8f668617c80f589512777960603393a455604051908152f35b610ee88591611c1e565b610ef25738610e82565b8380fd5b6040513d87823e3d90fd5b013590503880610e0f565b6009840188526020882091885b601f1985168110610f615750918391600193600995601f19811610610f47575b505050811b01910155610e25565b0135600019600384901b60f8161c19169055388080610f39565b90926020600181928686013581550194019101610f19565b60098401885260208820601f840160051c810160208510610fb6575b601f830160051c82018110610fab575050610df5565b898155600101610f95565b5080610f95565b610fc73415611f9a565b600254610fe790604435906001600160a01b039081169033908816612028565b610d3b565b336001600160a01b03841603610cd35760405162461bcd60e51b815260206004820152601960248201527f43616e6e6f74206368616c6c656e676520796f757273656c66000000000000006044820152606490fd5b503461018257806003193601126101825761105a611e0b565b600180546001600160a01b031981169091556000906001600160a01b03167f8be0079c531659141344cd1fd0a4f28419497f9722a3daafe3b4186f6b6457e08280a380f35b5034610182576020366003190112610182576110b9611bbe565b6110c1611e0b565b6001600160a01b0316801561110957600380546001600160a01b031916821790557f54e4612788f90384e6843298d7854436f3a585b2c3831ab66abf1de63bfa6c2d8280a280f35b60405162461bcd60e51b815260206004820152600d60248201526c24b73b30b634b21030b236b4b760991b6044820152606490fd5b50346101825760203660031901126101825760406020916004358152600983522054604051908152f35b50346101825760208060031936011261044c5760043590611187611f77565b8183526007815260408320916006830180549060ff821660058110156106c4576002036112cc576001600160a01b0391600881901c831633810361128f571561125a576040516040810181811067ffffffffffffffff8211176103fb576040526001815285810190863683375115611246579160037f401af6acaf4dfd2ab7650e060f96cf76f6a51fd9d42102601e60fdacd4eacff2949260049433905260ff1916179055600386015416940154926040519384523393a46001815580f35b634e487b7160e01b88526032600452602488fd5b60405162461bcd60e51b815260048101869052600d60248201526c139bc81dda5b9b995c881cd95d609a1b6044820152606490fd5b60405162461bcd60e51b81526004810187905260156024820152744f6e6c792077696e6e65722063616e20636c61696d60581b6044820152606490fd5b60405162461bcd60e51b815260048101859052601660248201527510da185b1b195b99d9481b9bdd081c995cdbdb1d995960521b6044820152606490fd5b503461018257602036600319011261018257606061016060405161132d81611c32565b83815283602082015283604082015283838201528360808201528360a08201528360c08201528360e082015283610100820152836101208201528361014082015201526004358152600760205260408120906040519061138c82611c32565b82548252600183015460ff8116600281101561150f57602084015260081c6001600160a01b0390811660408401526002840154811660608401526003840154166080830152600483015460a083015260058084015460c084015260068401549160ff8316918210156114fb575060e0830152600890811c6001600160a01b031661010083015260078301546101208301528201546101408201526101609161143690600901611d65565b82820152610b88604051928392602084528051602085015261146060208201516040860190611c8d565b60018060a01b03604082015116606085015260018060a01b03606082015116608085015260018060a01b0360808201511660a085015260a081015160c085015260c081015160e08501526114bd60e0820151610100860190611cb0565b60018060a01b0361010082015116610120850152610120810151610140850152610140810151828501520151610180808401526101a0830190611cbd565b634e487b7160e01b81526021600452602490fd5b634e487b7160e01b83526021600452602483fd5b503461018257606036600319011261018257600435611540611bd9565b6044359167ffffffffffffffff908184116105b657366023850112156105b65783600401359261156f84611c71565b61157c6040519182611c4f565b848152866024963688888301011161044c5786889760209889930183860137830101526115a7611f77565b82875260078552604087209160068301805460ff811660058110156119ca5780159081156119bf575b501561198a576001600160a01b03838116979094908815611955576040518a8101918983526001600160601b03198760601b16604083015260348252606082019082821090821117611942576040525190207f19457468657265756d205369676e6564204d6573736167653a0a3332000000008c52601c52603c8b2061166291611659916120f2565b909291926121be565b8480600354169116036118fe576001600160a81b03191660089290921b610100600160a81b03169190911760021790554260088301556001808301549096888060ff841660028110156118eb57808b0361187d57505050600484015480891b908082046002149015171561186a579160081c83168681036118655750826002850154165b6006548084029084820414841517156118525761271090048084039384116118525790818b92611800575b50600254851690808616156117f857935b600387019486865416833b156105b657879360a49386928d604051998a9889976297d05560e51b8952166004880152860152604485015260648401528a60848401525af180156117ed576117b3575b50546004830154600590930154604080519485529684015216937f0247b762d340895e9ba5c4e57a8f9b65eb56e04f1786bbe81fdcd64432cf1e5d91a4815580f35b917f0247b762d340895e9ba5c4e57a8f9b65eb56e04f1786bbe81fdcd64432cf1e5d9391986117e3604094611c1e565b9891935091611771565b6040513d8b823e3d90fd5b503093611722565b7fd0a602bb26e23a82d1071b569dda4305120744b857e3d08eb1779d5d3478c5418a8760038a01818154168752600c8352604087206118408682546120e5565b9055541692604051908152a238611711565b634e487b7160e01b8b526011600452828bfd5b6116e6565b50634e487b7160e01b8952601160045288fd5b909193506116e657858a526008885260408a208054908b5b8281106118a4575050506116e6565b89876118b08385611b8c565b505416036118c7575b6118c290611f52565b611895565b946118e36118c2918d6118da8986611b8c565b500154906120e5565b9590506118b9565b634e487b7160e01b8c526021600452838cfd5b60405162461bcd60e51b8152600481018990526017818b01527f496e76616c69642061646d696e207369676e61747572650000000000000000006044820152606490fd5b634e487b7160e01b8e5260416004528c8efd5b60405162461bcd60e51b8152600481018b9052600e818d01526d24b73b30b634b2103bb4b73732b960911b6044820152606490fd5b60405162461bcd60e51b815260048101899052600e818b01526d496e76616c69642073746174757360901b6044820152606490fd5b6001915014386115d0565b634e487b7160e01b8b526021600452898bfd5b50346101825760207fced2684241c29578df8f7fbab74348d0053114fa157b900b2f1f4a1d4a2b3395611a0f36611bef565b9290611a19611e0b565b6001600160a01b031692611a2e84151561222d565b838552600b825261079681604087209060ff801983541691151516179055565b503461018257602036600319011261018257611a68611bbe565b611a70611e0b565b6001600160a01b03168015611ab857600480546001600160a01b031916821790557fba887708e7d4436dd36b62187bdced03e0b9abe66caf392a66dd84386641b2098280a280f35b60405162461bcd60e51b8152602060048201526011602482015270125b9d985b1a59081c9958da5c1a595b9d607a1b6044820152606490fd5b503461018257604036600319011261018257602435906004358152600860205260408120908154831015610182576080611b2b8484611b8c565b5080549060ff60026001830154920154169060ff6040519360018060a01b038116855260a01c1615156020840152604083015215156060820152f35b90503461044c578160031936011261044c576002546001600160a01b03168152602090f35b8054821015611ba8576000526003602060002091020190600090565b634e487b7160e01b600052603260045260246000fd5b600435906001600160a01b0382168203611bd457565b600080fd5b602435906001600160a01b0382168203611bd457565b6040906003190112611bd4576004356001600160a01b0381168103611bd457906024358015158103611bd45790565b67ffffffffffffffff81116103fb57604052565b610180810190811067ffffffffffffffff8211176103fb57604052565b90601f8019910116810190811067ffffffffffffffff8211176103fb57604052565b67ffffffffffffffff81116103fb57601f01601f191660200190565b906002821015611c9a5752565b634e487b7160e01b600052602160045260246000fd5b906005821015611c9a5752565b919082519283825260005b848110611ce9575050826000602080949584010152601f8019910116010190565b602081830181015184830182015201611cc8565b9181601f84011215611bd45782359167ffffffffffffffff8311611bd45760208381860195010111611bd457565b90600182811c92168015611d5b575b6020831014611d4557565b634e487b7160e01b600052602260045260246000fd5b91607f1691611d3a565b9060405191826000825492611d7984611d2b565b908184526001948581169081600014611de85750600114611da5575b5050611da392500383611c4f565b565b9093915060005260209081600020936000915b818310611dd0575050611da393508201013880611d95565b85548884018501529485019487945091830191611db8565b915050611da394506020925060ff191682840152151560051b8201013880611d95565b6001546001600160a01b03163303611e1f57565b60405163118cdaa760e01b8152336004820152602490fd5b15611e3e57565b60405162461bcd60e51b8152602060048201526014602482015273151bdad95b881a5cc8189b1858dadb1a5cdd195960621b6044820152606490fd5b15611e8157565b60405162461bcd60e51b815260206004820152601160248201527005374616b65206d757374206265203e203607c1b6044820152606490fd5b15611ec157565b60405162461bcd60e51b815260206004820152601960248201527f506f696e747320726577617264206d757374206265203e2030000000000000006044820152606490fd5b15611f0d57565b60405162461bcd60e51b815260206004820152601f60248201527f506f696e7473207265776172642063616e6e6f742065786365656420353030006044820152606490fd5b6000198114611f615760010190565b634e487b7160e01b600052601160045260246000fd5b600260005414611f88576002600055565b604051633ee5aeb560e01b8152600490fd5b15611fa157565b60405162461bcd60e51b815260206004820152601960248201527f446f206e6f742073656e642045544820666f72204552433230000000000000006044820152606490fd5b15611fed57565b60405162461bcd60e51b815260206004820152601360248201527208aa89040c2dadeeadce840dad2e6dac2e8c6d606b1b6044820152606490fd5b6040516323b872dd60e01b60208201526001600160a01b03928316602482015292909116604483015260648083019390935291815260a081019181831067ffffffffffffffff8411176103fb57611da3926040525b906000602091828151910182855af1156120d9576000513d6120d057506001600160a01b0381163b155b6120ae5750565b604051635274afe760e01b81526001600160a01b039091166004820152602490fd5b600114156120a7565b6040513d6000823e3d90fd5b91908201809211611f6157565b81519190604183036121235761211c92506020820151906060604084015193015160001a9061212e565b9192909190565b505060009160029190565b91907f7fffffffffffffffffffffffffffffff5d576e7357a4501ddfe92f46681b20a084116121b257926020929160ff608095604051948552168484015260408301526060820152600092839182805260015afa156121a65780516001600160a01b0381161561219d57918190565b50809160019190565b604051903d90823e3d90fd5b50505060009160039190565b6004811015611c9a57806121d0575050565b600181036121ea5760405163f645eedf60e01b8152600490fd5b6002810361220b5760405163fce698f760e01b815260048101839052602490fd5b6003146122155750565b602490604051906335e2f38360e21b82526004820152fd5b1561223457565b60405162461bcd60e51b815260206004820152600d60248201526c24b73b30b634b2103a37b5b2b760991b6044820152606490fdfea26469706673582212202e2854bbd34c5c01f588224c253842ddf90c7f3ca7ec082c2f5faf7aeb94fbd964736f6c63430008140033",
  "linkReferences": {},
  "deployedLinkReferences": {}
}