{"src/ChallengeFactory.sol":{"ChallengeFactory":{"abi":[{"inputs":[{"internalType":"address payable","name":"_stakeEscrow","type":"address"},{"internalType":"address","name":"_admin","type":"address"},{"internalType":"address","name":"_platformFeeRecipient","type":"address"}],"stateMutability":"nonpayable","type":"constructor"},{"inputs":[],"name":"ECDSAInvalidSignature","type":"error"},{"inputs":[{"internalType":"uint256","name":"length","type":"uint256"}],"name":"ECDSAInvalidSignatureLength","type":"error"},{"inputs":[{"internalType":"bytes32","name":"s","type":"bytes32"}],"name":"ECDSAInvalidSignatureS","type":"error"},{"inputs":[{"internalType":"address","name":"owner","type":"address"}],"name":"OwnableInvalidOwner","type":"error"},{"inputs":[{"internalType":"address","name":"account","type":"address"}],"name":"OwnableUnauthorizedAccount","type":"error"},{"inputs":[],"name":"ReentrancyGuardReentrantCall","type":"error"},{"inputs":[{"internalType":"address","name":"token","type":"address"}],"name":"SafeERC20FailedOperation","type":"error"},{"anonymous":false,"inputs":[{"indexed":true,"internalType":"address","name":"newAdmin","type":"address"}],"name":"AdminUpdated","type":"event"},{"anonymous":false,"inputs":[{"indexed":true,"internalType":"uint256","name":"challengeId","type":"uint256"},{"indexed":true,"internalType":"address","name":"creator","type":"address"},{"indexed":true,"internalType":"address","name":"paymentToken","type":"address"},{"indexed":false,"internalType":"uint256","name":"stakeAmount","type":"uint256"},{"indexed":false,"internalType":"uint256","name":"pointsReward","type":"uint256"}],"name":"ChallengeCreatedGroup","type":"event"},{"anonymous":false,"inputs":[{"indexed":true,"internalType":"uint256","name":"challengeId","type":"uint256"},{"indexed":true,"internalType":"address","name":"creator","type":"address"},{"indexed":true,"internalType":"address","name":"participant","type":"address"},{"indexed":false,"internalType":"address","name":"paymentToken","type":"address"},{"indexed":false,"internalType":"uint256","name":"stakeAmount","type":"uint256"},{"indexed":false,"internalType":"uint256","name":"pointsReward","type":"uint256"}],"name":"ChallengeCreatedP2P","type":"event"},{"anonymous":false,"inputs":[{"indexed":true,"internalType":"uint256","name":"challengeId","type":"uint256"},{"indexed":true,"internalType":"address","name":"winner","type":"address"},{"indexed":true,"internalType":"address","name":"paymentToken","type":"address"},{"indexed":false,"internalType":"uint256","name":"stakeAmount","type":"uint256"},{"indexed":false,"internalType":"uint256","name":"pointsAwarded","type":"uint256"}],"name":"ChallengeResolved","type":"event"},{"anonymous":false,"inputs":[{"indexed":true,"internalType":"address","name":"previousOwner","type":"address"},{"indexed":true,"internalType":"address","name":"newOwner","type":"address"}],"name":"OwnershipTransferred","type":"event"},{"anonymous":false,"inputs":[{"indexed":true,"internalType":"address","name":"token","type":"address"},{"indexed":false,"internalType":"bool","name":"enabled","type":"bool"}],"name":"PaymentTokenToggled","type":"event"},{"anonymous":false,"inputs":[{"indexed":true,"internalType":"address","name":"token","type":"address"},{"indexed":false,"internalType":"uint256","name":"amount","type":"uint256"}],"name":"PlatformFeeCollected","type":"event"},{"anonymous":false,"inputs":[{"indexed":false,"internalType":"uint256","name":"newPercentage","type":"uint256"}],"name":"PlatformFeePercentageUpdated","type":"event"},{"anonymous":false,"inputs":[{"indexed":true,"internalType":"address","name":"newRecipient","type":"address"}],"name":"PlatformFeeRecipientUpdated","type":"event"},{"anonymous":false,"inputs":[{"indexed":true,"internalType":"address","name":"token","type":"address"},{"indexed":false,"internalType":"uint256","name":"amount","type":"uint256"},{"indexed":true,"internalType":"address","name":"recipient","type":"address"}],"name":"PlatformFeeWithdrawn","type":"event"},{"anonymous":false,"inputs":[{"indexed":true,"internalType":"uint256","name":"challengeId","type":"uint256"},{"indexed":true,"internalType":"address","name":"user","type":"address"},{"indexed":true,"internalType":"address","name":"paymentToken","type":"address"},{"indexed":false,"internalType":"uint256","name":"amount","type":"uint256"}],"name":"StakeClaimed","type":"event"},{"anonymous":false,"inputs":[{"indexed":true,"internalType":"address","name":"token","type":"address"},{"indexed":false,"internalType":"bool","name":"blacklisted","type":"bool"}],"name":"TokenBlacklisted","type":"event"},{"anonymous":false,"inputs":[{"indexed":true,"internalType":"address","name":"token","type":"address"},{"indexed":false,"internalType":"bool","name":"verified","type":"bool"}],"name":"TokenVerified","type":"event"},{"inputs":[{"internalType":"uint256","name":"challengeId","type":"uint256"}],"name":"acceptP2PChallenge","outputs":[],"stateMutability":"payable","type":"function"},{"inputs":[],"name":"admin","outputs":[{"internalType":"address","name":"","type":"address"}],"stateMutability":"view","type":"function"},{"inputs":[{"internalType":"address","name":"token","type":"address"},{"internalType":"bool","name":"blacklisted","type":"bool"}],"name":"blacklistToken","outputs":[],"stateMutability":"nonpayable","type":"function"},{"inputs":[{"internalType":"address","name":"","type":"address"}],"name":"blacklistedTokens","outputs":[{"internalType":"bool","name":"","type":"bool"}],"stateMutability":"view","type":"function"},{"inputs":[{"internalType":"uint256","name":"","type":"uint256"}],"name":"challenges","outputs":[{"internalType":"uint256","name":"id","type":"uint256"},{"internalType":"enum ChallengeFactory.ChallengeType","name":"challengeType","type":"uint8"},{"internalType":"address","name":"creator","type":"address"},{"internalType":"address","name":"participant","type":"address"},{"internalType":"address","name":"paymentToken","type":"address"},{"internalType":"uint256","name":"stakeAmount","type":"uint256"},{"internalType":"uint256","name":"pointsReward","type":"uint256"},{"internalType":"enum ChallengeFactory.ChallengeStatus","name":"status","type":"uint8"},{"internalType":"address","name":"winner","type":"address"},{"internalType":"uint256","name":"createdAt","type":"uint256"},{"internalType":"uint256","name":"resolvedAt","type":"uint256"},{"internalType":"string","name":"metadataURI","type":"string"}],"stateMutability":"view","type":"function"},{"inputs":[{"internalType":"uint256","name":"challengeId","type":"uint256"}],"name":"claimStake","outputs":[],"stateMutability":"nonpayable","type":"function"},{"inputs":[{"internalType":"address","name":"paymentToken","type":"address"},{"internalType":"uint256","name":"stakeAmount","type":"uint256"},{"internalType":"uint256","name":"pointsReward","type":"uint256"},{"internalType":"string","name":"metadataURI","type":"string"}],"name":"createGroupChallenge","outputs":[{"internalType":"uint256","name":"","type":"uint256"}],"stateMutability":"nonpayable","type":"function"},{"inputs":[{"internalType":"address","name":"participant","type":"address"},{"internalType":"address","name":"paymentToken","type":"address"},{"internalType":"uint256","name":"stakeAmount","type":"uint256"},{"internalType":"uint256","name":"pointsReward","type":"uint256"},{"internalType":"string","name":"metadataURI","type":"string"}],"name":"createP2PChallenge","outputs":[{"internalType":"uint256","name":"","type":"uint256"}],"stateMutability":"payable","type":"function"},{"inputs":[{"internalType":"uint256","name":"challengeId","type":"uint256"}],"name":"getChallenge","outputs":[{"components":[{"internalType":"uint256","name":"id","type":"uint256"},{"internalType":"enum ChallengeFactory.ChallengeType","name":"challengeType","type":"uint8"},{"internalType":"address","name":"creator","type":"address"},{"internalType":"address","name":"participant","type":"address"},{"internalType":"address","name":"paymentToken","type":"address"},{"internalType":"uint256","name":"stakeAmount","type":"uint256"},{"internalType":"uint256","name":"pointsReward","type":"uint256"},{"internalType":"enum ChallengeFactory.ChallengeStatus","name":"status","type":"uint8"},{"internalType":"address","name":"winner","type":"address"},{"internalType":"uint256","name":"createdAt","type":"uint256"},{"internalType":"uint256","name":"resolvedAt","type":"uint256"},{"internalType":"string","name":"metadataURI","type":"string"}],"internalType":"struct ChallengeFactory.Challenge","name":"","type":"tuple"}],"stateMutability":"view","type":"function"},{"inputs":[{"internalType":"address","name":"token","type":"address"}],"name":"getPlatformFeeBalance","outputs":[{"internalType":"uint256","name":"","type":"uint256"}],"stateMutability":"view","type":"function"},{"inputs":[{"internalType":"uint256","name":"","type":"uint256"},{"internalType":"uint256","name":"","type":"uint256"}],"name":"groupChallengeParticipants","outputs":[{"internalType":"address","name":"user","type":"address"},{"internalType":"bool","name":"side","type":"bool"},{"internalType":"uint256","name":"stakeAmount","type":"uint256"},{"internalType":"bool","name":"claimed","type":"bool"}],"stateMutability":"view","type":"function"},{"inputs":[{"internalType":"address","name":"token","type":"address"}],"name":"isTokenBlacklisted","outputs":[{"internalType":"bool","name":"","type":"bool"}],"stateMutability":"view","type":"function"},{"inputs":[{"internalType":"address","name":"token","type":"address"}],"name":"isTokenVerified","outputs":[{"internalType":"bool","name":"","type":"bool"}],"stateMutability":"view","type":"function"},{"inputs":[],"name":"nextChallengeId","outputs":[{"internalType":"uint256","name":"","type":"uint256"}],"stateMutability":"view","type":"function"},{"inputs":[],"name":"owner","outputs":[{"internalType":"address","name":"","type":"address"}],"stateMutability":"view","type":"function"},{"inputs":[{"internalType":"uint256","name":"","type":"uint256"}],"name":"p2pChallengeAmounts","outputs":[{"internalType":"uint256","name":"","type":"uint256"}],"stateMutability":"view","type":"function"},{"inputs":[{"internalType":"address","name":"","type":"address"}],"name":"platformFeeBalance","outputs":[{"internalType":"uint256","name":"","type":"uint256"}],"stateMutability":"view","type":"function"},{"inputs":[],"name":"platformFeePercentage","outputs":[{"internalType":"uint256","name":"","type":"uint256"}],"stateMutability":"view","type":"function"},{"inputs":[],"name":"platformFeeRecipient","outputs":[{"internalType":"address","name":"","type":"address"}],"stateMutability":"view","type":"function"},{"inputs":[],"name":"renounceOwnership","outputs":[],"stateMutability":"nonpayable","type":"function"},{"inputs":[{"internalType":"uint256","name":"challengeId","type":"uint256"},{"internalType":"address","name":"winner","type":"address"},{"internalType":"bytes","name":"signature","type":"bytes"}],"name":"resolveChallenge","outputs":[],"stateMutability":"nonpayable","type":"function"},{"inputs":[{"internalType":"address","name":"newAdmin","type":"address"}],"name":"setAdmin","outputs":[],"stateMutability":"nonpayable","type":"function"},{"inputs":[{"internalType":"uint256","name":"newPercentage","type":"uint256"}],"name":"setPlatformFeePercentage","outputs":[],"stateMutability":"nonpayable","type":"function"},{"inputs":[{"internalType":"address","name":"newRecipient","type":"address"}],"name":"setPlatformFeeRecipient","outputs":[],"stateMutability":"nonpayable","type":"function"},{"inputs":[],"name":"stakeEscrow","outputs":[{"internalType":"contract ChallengeEscrow","name":"","type":"address"}],"stateMutability":"view","type":"function"},{"inputs":[{"internalType":"address","name":"newOwner","type":"address"}],"name":"transferOwnership","outputs":[],"stateMutability":"nonpayable","type":"function"},{"inputs":[{"internalType":"address","name":"","type":"address"}],"name":"verifiedTokens","outputs":[{"internalType":"bool","name":"","type":"bool"}],"stateMutability":"view","type":"function"},{"inputs":[{"internalType":"address","name":"token","type":"address"},{"internalType":"bool","name":"verified","type":"bool"}],"name":"verifyToken","outputs":[],"stateMutability":"nonpayable","type":"function"},{"inputs":[{"internalType":"address","name":"token","type":"address"}],"name":"withdrawPlatformFees","outputs":[],"stateMutability":"nonpayable","type":"function"},{"stateMutability":"payable","type":"receive"}],"evm":{"bytecode":{"linkReferences":{},"object":"608034620001d857601f620024a838819003918201601f191683019291906001600160401b03841183851017620001dd578160609284926040968752833981010312620001d85780516001600160a01b038082169291839003620001d85762000078846200007060208501620001f3565b9301620001f3565b9060016000553315620001c05760018054336001600160a01b0319808316821790935587519295929184167f8be0079c531659141344cd1fd0a4f28419497f9722a3daafe3b4186f6b6457e0600080a36001600555600a60065585156200018d57508116918215620001595716928315620001155782600254161760025581600354161760035560045416176004555161229f9081620002098239f35b845162461bcd60e51b815260206004820152601560248201527f496e76616c69642066656520726563697069656e7400000000000000000000006044820152606490fd5b855162461bcd60e51b815260206004820152600d60248201526c24b73b30b634b21030b236b4b760991b6044820152606490fd5b62461bcd60e51b815260206004820152600e60248201526d496e76616c696420657363726f7760901b6044820152606490fd5b8451631e4fbdf760e01b815260006004820152602490fd5b600080fd5b634e487b7160e01b600052604160045260246000fd5b51906001600160a01b0382168203620001d85756fe608080604052600436101561001d575b50361561001b57600080fd5b005b600090813560e01c908163017b975b14611b67575080630d8d2d0814611af15780631871e24314611a4e578063190e4c55146119dd578063199a714e146115235780631baaaffe146102395780631bdd4b741461130a57806344c7d6ef146111685780635c8b5f44146107a257806368a2b7de14610bb557806369249fba1461113e578063704b6c021461109f578063715018a61461104157806379a1152214610c7a5780638333903e14610bee57806386ff06e714610bb55780638da5cb5b14610b8c5780638f1d377614610aaf578063c25d8b7b146107ff578063cdd78cfc146107e1578063ce9be9ba146107a2578063d2d6648214610725578063d35202e814610479578063eb13554f14610450578063ec3889b514610278578063ec867b2714610239578063f2fde38b146101ae578063f851a440146101855763fc67aa500361000f57346101825780600319360112610182576020600554604051908152f35b80fd5b50346101825780600319360112610182576003546040516001600160a01b039091168152602090f35b5034610182576020366003190112610182576101c8611bbe565b6101d0611e0b565b6001600160a01b0390811690811561022057600154826001600160601b0360a01b821617600155167f8be0079c531659141344cd1fd0a4f28419497f9722a3daafe3b4186f6b6457e0600080a380f35b604051631e4fbdf760e01b815260048101849052602490fd5b50346101825760203660031901126101825760209060ff906040906001600160a01b03610264611bbe565b168152600a84522054166040519015158152f35b50346101825760208060031936011261044c57610293611bbe565b9061029c611e0b565b6102a4611f77565b6001600160a01b03918216808452600c8252604084205492909190831561041157828552600c8252846040812055821560001461038a57848080808785600454165af13d15610385573d6102f781611c71565b906103056040519283611c4f565b815286843d92013e5b1561034a57907f08273342a380b5301480c28ba6b7dfb7bfda23bfd871714c935e45a15e9cb823915b6004541693604051908152a36001815580f35b60405162461bcd60e51b8152600481018390526013602482015272115512081d1c985b9cd9995c8819985a5b1959606a1b6044820152606490fd5b61030e565b60045460405163a9059cbb60e01b8185015290821660248201526044808201869052815291906080830167ffffffffffffffff8111848210176103fb577f08273342a380b5301480c28ba6b7dfb7bfda23bfd871714c935e45a15e9cb823936103f6916040528561207d565b610337565b634e487b7160e01b600052604160045260246000fd5b60405162461bcd60e51b81526004810183905260136024820152724e6f206665657320746f20776974686472617760681b6044820152606490fd5b5080fd5b50346101825780600319360112610182576004546040516001600160a01b039091168152602090f35b5060208060031936011261044c57600435610492611f77565b808352600782526040832060018101549160ff83166002811015610711576001036106d857600682019360ff85541660058110156106c45761068b576001600160a01b039360081c8416331461063b5760028301805487908681161561062257505054841633036105de5750908492915b600460038301938085541680156000146105ba5750610526828501543414611fe6565b806002541694541692015492803b156105b657604051637a443e3d60e11b81523360048201526001600160a01b03939093166024840152604483019390935260648201529082908290608490829084905af180156105ab57610597575b5050600160ff198254161790556001815580f35b6105a090611c1e565b61044c578138610583565b6040513d84823e3d90fd5b8480fd5b6105d9906105c83415611f9a565b826002541684870154913390612028565b610526565b6064906040519062461bcd60e51b82526004820152601d60248201527f4e6f742074686520737065636966696564207061727469636970616e740000006044820152fd5b6001600160a01b03191633179091559392919050610503565b6084906040519062461bcd60e51b82526004820152602360248201527f43726561746f722063616e6e6f7420616363657074206f776e206368616c6c656044820152626e676560e81b6064820152fd5b6064906040519062461bcd60e51b82526004820152601260248201527121b430b63632b733b2903737ba1037b832b760711b6044820152fd5b634e487b7160e01b87526021600452602487fd5b60405162461bcd60e51b81526004810185905260116024820152704e6f7420503250206368616c6c656e676560781b6044820152606490fd5b634e487b7160e01b86526021600452602486fd5b50346101825760207fd128f4457567637d4d9a19a54a44a6e47ba1ed0cc875b3cff7b762c8bb27b41661075736611bef565b9290610761611e0b565b6001600160a01b03169261077684151561222d565b838552600a825261079681604087209060ff801983541691151516179055565b6040519015158152a280f35b50346101825760203660031901126101825760209060ff906040906001600160a01b036107cd611bbe565b168152600b84522054166040519015158152f35b50346101825780600319360112610182576020600654604051908152f35b503461018257608036600319011261018257610819611bbe565b67ffffffffffffffff916024359190604435606435858111610aab57610843903690600401611cfd565b94909361084e611e0b565b610856611f77565b6001600160a01b0316918215610a6e57828452602096600b885261088160ff60408720541615611e37565b61088c831515611e7a565b610897821515611eba565b6108a56101f4831115611f06565b600554966108b288611f52565b6005558786526007895260408620888155600180820180546001600160a81b0319163360081b610100600160a81b0316179055979060099060ff1960038201896001600160601b0360a01b8254161790558760048301558660058301556006820190815416905542600782015501928211610a5a5781906109338454611d2b565b601f8111610a0a575b508790601f83116001146109aa57889261099f575b5050600019600383901b1c191690871b1790555b60405191825286820152847fac61621ed399481a7fdd906a7b94c9d3667dee8643e9c121e783b860a3f2282d60403393a455604051908152f35b013590503880610951565b8489528b89208a945091601f1984168a8e5b8282106109f357505084116109d9575b505050811b019055610965565b0135600019600384901b60f8161c191690553880806109cc565b8385013586558d979095019492830192018e6109bc565b9091508388528a8820601f840160051c8101918c8510610a50575b84939291601f8c920160051c01915b828110610a4257505061093c565b8a81558594508b9101610a34565b9091508190610a25565b634e487b7160e01b87526041600452602487fd5b60405162461bcd60e51b815260206004820152601560248201527424b73b30b634b2103830bcb6b2b73a103a37b5b2b760591b6044820152606490fd5b8280fd5b503461018257602036600319011261018257604060209160043581526007835220610b8881549160018101549060018060a01b03806002830154169080600384015416600484015460058501549060068601549260078701549585610b1b600960088b01549a01611d65565b99610b336040519e8f9e8f9081520160ff8316611c8d565b60081c1660408c015260608b015260808a015260a089015260c0880152610b6060e0880160ff8316611cb0565b60081c1661010086015261012085015261014084015261018080610160850152830190611cbd565b0390f35b50346101825780600319360112610182576001546040516001600160a01b039091168152602090f35b5034610182576020366003190112610182576020906040906001600160a01b03610bdd611bbe565b168152600c83522054604051908152f35b503461018257602036600319011261018257600435610c0b611e0b565b6127108111610c46576020817fd0a5ddfa06600c6481dcd2923a572827c06e53859f23f7ddab41ff3144ee868792600655604051908152a180f35b60405162461bcd60e51b815260206004820152600c60248201526b08ccaca40e8dede40d0d2ced60a31b6044820152606490fd5b5060a036600319011261018257610c8f611bbe565b610c97611bd9565b67ffffffffffffffff916084358381116105b657610cb9903690600401611cfd565b610cc4949194611f77565b6001600160a01b038316610fec575b6001600160a01b0384168652600b6020526040862054610cf69060ff1615611e37565b610d036044351515611e7a565b610d106064351515611eba565b610d206101f46064351115611f06565b6001600160a01b038416610fbd57610d3b6044353414611fe6565b60055494610d4886611f52565b600555858752600760205260408720868155600180820180546001600160a81b0319163360081b610100600160a81b03161790911790559260ff196002850180546001600160a01b038881166001600160a01b031992831617909255600387018054928a1692909116919091179055604435600486015560643560058601556006850180549190911690554260078501558211610a5a57610dec6009840154611d2b565b601f8111610f79575b508690601f8311600114610f0c5760099291889183610f01575b50508160011b916000199060031b1c1916179101555b6002546001600160a01b0316803b156105b657604051637a443e3d60e11b81523360048201526001600160a01b03841660248201526044803590820152606481018590529085908290608490829084905af18015610ef657610ede575b509260019160209460405191848060a01b03168252604435868301526064356040830152838060a01b031690847ff4f5a9f479b06cd99960b03cddc4864cb98eaa763a8f668617c80f589512777960603393a455604051908152f35b610ee88591611c1e565b610ef25738610e82565b8380fd5b6040513d87823e3d90fd5b013590503880610e0f565b6009840188526020882091885b601f1985168110610f615750918391600193600995601f19811610610f47575b505050811b01910155610e25565b0135600019600384901b60f8161c19169055388080610f39565b90926020600181928686013581550194019101610f19565b60098401885260208820601f840160051c810160208510610fb6575b601f830160051c82018110610fab575050610df5565b898155600101610f95565b5080610f95565b610fc73415611f9a565b600254610fe790604435906001600160a01b039081169033908816612028565b610d3b565b336001600160a01b03841603610cd35760405162461bcd60e51b815260206004820152601960248201527f43616e6e6f74206368616c6c656e676520796f757273656c66000000000000006044820152606490fd5b503461018257806003193601126101825761105a611e0b565b600180546001600160a01b031981169091556000906001600160a01b03167f8be0079c531659141344cd1fd0a4f28419497f9722a3daafe3b4186f6b6457e08280a380f35b5034610182576020366003190112610182576110b9611bbe565b6110c1611e0b565b6001600160a01b0316801561110957600380546001600160a01b031916821790557f54e4612788f90384e6843298d7854436f3a585b2c3831ab66abf1de63bfa6c2d8280a280f35b60405162461bcd60e51b815260206004820152600d60248201526c24b73b30b634b21030b236b4b760991b6044820152606490fd5b50346101825760203660031901126101825760406020916004358152600983522054604051908152f35b50346101825760208060031936011261044c5760043590611187611f77565b8183526007815260408320916006830180549060ff821660058110156106c4576002036112cc576001600160a01b0391600881901c831633810361128f571561125a576040516040810181811067ffffffffffffffff8211176103fb576040526001815285810190863683375115611246579160037f401af6acaf4dfd2ab7650e060f96cf76f6a51fd9d42102601e60fdacd4eacff2949260049433905260ff1916179055600386015416940154926040519384523393a46001815580f35b634e487b7160e01b88526032600452602488fd5b60405162461bcd60e51b815260048101869052600d60248201526c139bc81dda5b9b995c881cd95d609a1b6044820152606490fd5b60405162461bcd60e51b81526004810187905260156024820152744f6e6c792077696e6e65722063616e20636c61696d60581b6044820152606490fd5b60405162461bcd60e51b815260048101859052601660248201527510da185b1b195b99d9481b9bdd081c995cdbdb1d995960521b6044820152606490fd5b503461018257602036600319011261018257606061016060405161132d81611c32565b83815283602082015283604082015283838201528360808201528360a08201528360c08201528360e082015283610100820152836101208201528361014082015201526004358152600760205260408120906040519061138c82611c32565b82548252600183015460ff8116600281101561150f57602084015260081c6001600160a01b0390811660408401526002840154811660608401526003840154166080830152600483015460a083015260058084015460c084015260068401549160ff8316918210156114fb575060e0830152600890811c6001600160a01b031661010083015260078301546101208301528201546101408201526101609161143690600901611d65565b82820152610b88604051928392602084528051602085015261146060208201516040860190611c8d565b60018060a01b03604082015116606085015260018060a01b03606082015116608085015260018060a01b0360808201511660a085015260a081015160c085015260c081015160e08501526114bd60e0820151610100860190611cb0565b60018060a01b0361010082015116610120850152610120810151610140850152610140810151828501520151610180808401526101a0830190611cbd565b634e487b7160e01b81526021600452602490fd5b634e487b7160e01b83526021600452602483fd5b503461018257606036600319011261018257600435611540611bd9565b6044359167ffffffffffffffff908184116105b657366023850112156105b65783600401359261156f84611c71565b61157c6040519182611c4f565b848152866024963688888301011161044c5786889760209889930183860137830101526115a7611f77565b82875260078552604087209160068301805460ff811660058110156119ca5780159081156119bf575b501561198a576001600160a01b03838116979094908815611955576040518a8101918983526001600160601b03198760601b16604083015260348252606082019082821090821117611942576040525190207f19457468657265756d205369676e6564204d6573736167653a0a3332000000008c52601c52603c8b2061166291611659916120f2565b909291926121be565b8480600354169116036118fe576001600160a81b03191660089290921b610100600160a81b03169190911760021790554260088301556001808301549096888060ff841660028110156118eb57808b0361187d57505050600484015480891b908082046002149015171561186a579160081c83168681036118655750826002850154165b6006548084029084820414841517156118525761271090048084039384116118525790818b92611800575b50600254851690808616156117f857935b600387019486865416833b156105b657879360a49386928d604051998a9889976297d05560e51b8952166004880152860152604485015260648401528a60848401525af180156117ed576117b3575b50546004830154600590930154604080519485529684015216937f0247b762d340895e9ba5c4e57a8f9b65eb56e04f1786bbe81fdcd64432cf1e5d91a4815580f35b917f0247b762d340895e9ba5c4e57a8f9b65eb56e04f1786bbe81fdcd64432cf1e5d9391986117e3604094611c1e565b9891935091611771565b6040513d8b823e3d90fd5b503093611722565b7fd0a602bb26e23a82d1071b569dda4305120744b857e3d08eb1779d5d3478c5418a8760038a01818154168752600c8352604087206118408682546120e5565b9055541692604051908152a238611711565b634e487b7160e01b8b526011600452828bfd5b6116e6565b50634e487b7160e01b8952601160045288fd5b909193506116e657858a526008885260408a208054908b5b8281106118a4575050506116e6565b89876118b08385611b8c565b505416036118c7575b6118c290611f52565b611895565b946118e36118c2918d6118da8986611b8c565b500154906120e5565b9590506118b9565b634e487b7160e01b8c526021600452838cfd5b60405162461bcd60e51b8152600481018990526017818b01527f496e76616c69642061646d696e207369676e61747572650000000000000000006044820152606490fd5b634e487b7160e01b8e5260416004528c8efd5b60405162461bcd60e51b8152600481018b9052600e818d01526d24b73b30b634b2103bb4b73732b960911b6044820152606490fd5b60405162461bcd60e51b815260048101899052600e818b01526d496e76616c69642073746174757360901b6044820152606490fd5b6001915014386115d0565b634e487b7160e01b8b526021600452898bfd5b50346101825760207fced2684241c29578df8f7fbab74348d0053114fa157b900b2f1f4a1d4a2b3395611a0f36611bef565b9290611a19611e0b565b6001600160a01b031692611a2e84151561222d565b838552600b825261079681604087209060ff801983541691151516179055565b503461018257602036600319011261018257611a68611bbe565b611a70611e0b565b6001600160a01b03168015611ab857600480546001600160a01b031916821790557fba887708e7d4436dd36b62187bdced03e0b9abe66caf392a66dd84386641b2098280a280f35b60405162461bcd60e51b8152602060048201526011602482015270125b9d985b1a59081c9958da5c1a595b9d607a1b6044820152606490fd5b503461018257604036600319011261018257602435906004358152600860205260408120908154831015610182576080611b2b8484611b8c565b5080549060ff60026001830154920154169060ff6040519360018060a01b038116855260a01c1615156020840152604083015215156060820152f35b90503461044c578160031936011261044c576002546001600160a01b03168152602090f35b8054821015611ba8576000526003602060002091020190600090565b634e487b7160e01b600052603260045260246000fd5b600435906001600160a01b0382168203611bd457565b600080fd5b602435906001600160a01b0382168203611bd457565b6040906003190112611bd4576004356001600160a01b0381168103611bd457906024358015158103611bd45790565b67ffffffffffffffff81116103fb57604052565b610180810190811067ffffffffffffffff8211176103fb57604052565b90601f8019910116810190811067ffffffffffffffff8211176103fb57604052565b67ffffffffffffffff81116103fb57601f01601f191660200190565b906002821015611c9a5752565b634e487b7160e01b600052602160045260246000fd5b906005821015611c9a5752565b919082519283825260005b848110611ce9575050826000602080949584010152601f8019910116010190565b602081830181015184830182015201611cc8565b9181601f84011215611bd45782359167ffffffffffffffff8311611bd45760208381860195010111611bd457565b90600182811c92168015611d5b575b6020831014611d4557565b634e487b7160e01b600052602260045260246000fd5b91607f1691611d3a565b9060405191826000825492611d7984611d2b565b908184526001948581169081600014611de85750600114611da5575b5050611da392500383611c4f565b565b9093915060005260209081600020936000915b818310611dd0575050611da393508201013880611d95565b85548884018501529485019487945091830191611db8565b915050611da394506020925060ff191682840152151560051b8201013880611d95565b6001546001600160a01b03163303611e1f57565b60405163118cdaa760e01b8152336004820152602490fd5b15611e3e57565b60405162461bcd60e51b8152602060048201526014602482015273151bdad95b881a5cc8189b1858dadb1a5cdd195960621b6044820152606490fd5b15611e8157565b60405162461bcd60e51b815260206004820152601160248201527005374616b65206d757374206265203e203607c1b6044820152606490fd5b15611ec157565b60405162461bcd60e51b815260206004820152601960248201527f506f696e747320726577617264206d757374206265203e2030000000000000006044820152606490fd5b15611f0d57565b60405162461bcd60e51b815260206004820152601f60248201527f506f696e7473207265776172642063616e6e6f742065786365656420353030006044820152606490fd5b6000198114611f615760010190565b634e487b7160e01b600052601160045260246000fd5b600260005414611f88576002600055565b604051633ee5aeb560e01b8152600490fd5b15611fa157565b60405162461bcd60e51b815260206004820152601960248201527f446f206e6f742073656e642045544820666f72204552433230000000000000006044820152606490fd5b15611fed57565b60405162461bcd60e51b815260206004820152601360248201527208aa89040c2dadeeadce840dad2e6dac2e8c6d606b1b6044820152606490fd5b6040516323b872dd60e01b60208201526001600160a01b03928316602482015292909116604483015260648083019390935291815260a081019181831067ffffffffffffffff8411176103fb57611da3926040525b906000602091828151910182855af1156120d9576000513d6120d057506001600160a01b0381163b155b6120ae5750565b604051635274afe760e01b81526001600160a01b039091166004820152602490fd5b600114156120a7565b6040513d6000823e3d90fd5b91908201809211611f6157565b81519190604183036121235761211c92506020820151906060604084015193015160001a9061212e565b9192909190565b505060009160029190565b91907f7fffffffffffffffffffffffffffffff5d576e7357a4501ddfe92f46681b20a084116121b257926020929160ff608095604051948552168484015260408301526060820152600092839182805260015afa156121a65780516001600160a01b0381161561219d57918190565b50809160019190565b604051903d90823e3d90fd5b50505060009160039190565b6004811015611c9a57806121d0575050565b600181036121ea5760405163f645eedf60e01b8152600490fd5b6002810361220b5760405163fce698f760e01b815260048101839052602490fd5b6003146122155750565b602490604051906335e2f38360e21b82526004820152fd5b1561223457565b60405162461bcd60e51b815260206004820152600d60248201526c24b73b30b634b2103a37b5b2b760991b6044820152606490fdfea26469706673582212202e2854bbd34c5c01f588224c253842ddf90c7f3ca7ec082c2f5faf7aeb94fbd964736f6c63430008140033","opcodes":"PUSH1 0x80 CALLVALUE PUSH3 0x1D8 JUMPI PUSH1 0x1F PUSH3 0x24A8 CODESIZE DUP2 SWAP1 SUB SWAP2 DUP3 ADD PUSH1 0x1F NOT AND DUP4 ADD SWAP3 SWAP2 SWAP1 PUSH1 0x1 PUSH1 0x1 PUSH1 0x40 SHL SUB DUP5 GT DUP4 DUP6 LT OR PUSH3 0x1DD JUMPI DUP2 PUSH1 0x60 SWAP3 DUP5 SWAP3 PUSH1 0x40 SWAP7 DUP8 MSTORE DUP4 CODECOPY DUP2 ADD SUB SLT PUSH3 0x1D8 JUMPI DUP1 MLOAD PUSH1 0x1 PUSH1 0x1 PUSH1 0xA0 SHL SUB DUP1 DUP3 AND SWAP3 SWAP2 DUP4 SWAP1 SUB PUSH3 0x1D8 JUMPI PUSH3 0x78 DUP5 PUSH3 0x70 PUSH1 0x20 DUP6 ADD PUSH3 0x1F3 JUMP JUMPDEST SWAP4 ADD PUSH3 0x1F3 JUMP JUMPDEST SWAP1 PUSH1 0x1 PUSH1 0x0 SSTORE CALLER ISZERO PUSH3 0x1C0 JUMPI PUSH1 0x1 DUP1 SLOAD CALLER PUSH1 0x1 PUSH1 0x1 PUSH1 0xA0 SHL SUB NOT DUP1 DUP4 AND DUP3 OR SWAP1 SWAP4 SSTORE DUP8 MLOAD SWAP3 SWAP6 SWAP3 SWAP2 DUP5 AND PUSH32 0x8BE0079C531659141344CD1FD0A4F28419497F9722A3DAAFE3B4186F6B6457E0 PUSH1 0x0 DUP1 LOG3 PUSH1 0x1 PUSH1 0x5 SSTORE PUSH1 0xA PUSH1 0x6 SSTORE DUP6 ISZERO PUSH3 0x18D JUMPI POP DUP2 AND SWAP2 DUP3 ISZERO PUSH3 0x159 JUMPI AND SWAP3 DUP4 ISZERO PUSH3 0x115 JUMPI DUP3 PUSH1 0x2 SLOAD AND OR PUSH1 0x2 SSTORE DUP2 PUSH1 0x3 SLOAD AND OR PUSH1 0x3 SSTORE PUSH1 0x4 SLOAD AND OR PUSH1 0x4 SSTORE MLOAD PUSH2 0x229F SWAP1 DUP2 PUSH3 0x209 DUP3 CODECOPY RETURN JUMPDEST DUP5 MLOAD PUSH3 0x461BCD PUSH1 0xE5 SHL DUP2 MSTORE PUSH1 0x20 PUSH1 0x4 DUP3 ADD MSTORE PUSH1 0x15 PUSH1 0x24 DUP3 ADD MSTORE PUSH32 0x496E76616C69642066656520726563697069656E740000000000000000000000 PUSH1 0x44 DUP3 ADD MSTORE PUSH1 0x64 SWAP1 REVERT JUMPDEST DUP6 MLOAD PUSH3 0x461BCD PUSH1 0xE5 SHL DUP2 MSTORE PUSH1 0x20 PUSH1 0x4 DUP3 ADD MSTORE PUSH1 0xD PUSH1 0x24 DUP3 ADD MSTORE PUSH13 0x24B73B30B634B21030B236B4B7 PUSH1 0x99 SHL PUSH1 0x44 DUP3 ADD MSTORE PUSH1 0x64 SWAP1 REVERT JUMPDEST PUSH3 0x461BCD PUSH1 0xE5 SHL DUP2 MSTORE PUSH1 0x20 PUSH1 0x4 DUP3 ADD MSTORE PUSH1 0xE PUSH1 0x24 DUP3 ADD MSTORE PUSH14 0x496E76616C696420657363726F77 PUSH1 0x90 SHL PUSH1 0x44 DUP3 ADD MSTORE PUSH1 0x64 SWAP1 REVERT JUMPDEST DUP5 MLOAD PUSH4 0x1E4FBDF7 PUSH1 0xE0 SHL DUP2 MSTORE PUSH1 0x0 PUSH1 0x4 DUP3 ADD MSTORE PUSH1 0x24 SWAP1 REVERT JUMPDEST PUSH1 0x0 DUP1 REVERT JUMPDEST PUSH4 0x4E487B71 PUSH1 0xE0 SHL PUSH1 0x0 MSTORE PUSH1 0x41 PUSH1 0x4 MSTORE PUSH1 0x24 PUSH1 0x0 REVERT JUMPDEST MLOAD SWAP1 PUSH1 0x1 PUSH1 0x1 PUSH1 0xA0 SHL SUB DUP3 AND DUP3 SUB PUSH3 0x1D8 JUMPI JUMP INVALID PUSH1 0x80 DUP1 PUSH1 0x40 MSTORE PUSH1 0x4 CALLDATASIZE LT ISZERO PUSH2 0x1D JUMPI JUMPDEST POP CALLDATASIZE ISZERO PUSH2 0x1B JUMPI PUSH1 0x0 DUP1 REVERT JUMPDEST STOP JUMPDEST PUSH1 0x0 SWAP1 DUP2 CALLDATALOAD PUSH1 0xE0 SHR SWAP1 DUP2 PUSH4 0x17B975B EQ PUSH2 0x1B67 JUMPI POP DUP1 PUSH4 0xD8D2D08 EQ PUSH2 0x1AF1 JUMPI DUP1 PUSH4 0x1871E243 EQ PUSH2 0x1A4E JUMPI DUP1 PUSH4 0x190E4C55 EQ PUSH2 0x19DD JUMPI DUP1 PUSH4 0x199A714E EQ PUSH2 0x1523 JUMPI DUP1 PUSH4 0x1BAAAFFE EQ PUSH2 0x239 JUMPI DUP1 PUSH4 0x1BDD4B74 EQ PUSH2 0x130A JUMPI DUP1 PUSH4 0x44C7D6EF EQ PUSH2 0x1168 JUMPI DUP1 PUSH4 0x5C8B5F44 EQ PUSH2 0x7A2 JUMPI DUP1 PUSH4 0x68A2B7DE EQ PUSH2 0xBB5 JUMPI DUP1 PUSH4 0x69249FBA EQ PUSH2 0x113E JUMPI DUP1 PUSH4 0x704B6C02 EQ PUSH2 0x109F JUMPI DUP1 PUSH4 0x715018A6 EQ PUSH2 0x1041 JUMPI DUP1 PUSH4 0x79A11522 EQ PUSH2 0xC7A JUMPI DUP1 PUSH4 0x8333903E EQ PUSH2 0xBEE JUMPI DUP1 PUSH4 0x86FF06E7 EQ PUSH2 0xBB5 JUMPI DUP1 PUSH4 0x8DA5CB5B EQ PUSH2 0xB8C JUMPI DUP1 PUSH4 0x8F1D3776 EQ PUSH2 0xAAF JUMPI DUP1 PUSH4 0xC25D8B7B EQ PUSH2 0x7FF JUMPI DUP1 PUSH4 0xCDD78CFC EQ PUSH2 0x7E1 JUMPI DUP1 PUSH4 0xCE9BE9BA EQ PUSH2 0x7A2 JUMPI DUP1 PUSH4 0xD2D66482 EQ PUSH2 0x725 JUMPI DUP1 PUSH4 0xD35202E8 EQ PUSH2 0x479 JUMPI DUP1 PUSH4 0xEB13554F EQ PUSH2 0x450 JUMPI DUP1 PUSH4 0xEC3889B5 EQ PUSH2 0x278 JUMPI DUP1 PUSH4 0xEC867B27 EQ PUSH2 0x239 JUMPI DUP1 PUSH4 0xF2FDE38B EQ PUSH2 0x1AE JUMPI DUP1 PUSH4 0xF851A440 EQ PUSH2 0x185 JUMPI PUSH4 0xFC67AA50 SUB PUSH2 0xF JUMPI CALLVALUE PUSH2 0x182 JUMPI DUP1 PUSH1 0x3 NOT CALLDATASIZE ADD SLT PUSH2 0x182 JUMPI PUSH1 0x20 PUSH1 0x5 SLOAD PUSH1 0x40 MLOAD SWAP1 DUP2 MSTORE RETURN JUMPDEST DUP1 REVERT JUMPDEST POP CALLVALUE PUSH2 0x182 JUMPI DUP1 PUSH1 0x3 NOT CALLDATASIZE ADD SLT PUSH2 0x182 JUMPI PUSH1 0x3 SLOAD PUSH1 0x40 MLOAD PUSH1 0x1 PUSH1 0x1 PUSH1 0xA0 SHL SUB SWAP1 SWAP2 AND DUP2 MSTORE PUSH1 0x20 SWAP1 RETURN JUMPDEST POP CALLVALUE PUSH2 0x182 JUMPI PUSH1 0x20 CALLDATASIZE PUSH1 0x3 NOT ADD SLT PUSH2 0x182 JUMPI PUSH2 0x1C8 PUSH2 0x1BBE JUMP JUMPDEST PUSH2 0x1D0 PUSH2 0x1E0B JUMP JUMPDEST PUSH1 0x1 PUSH1 0x1 PUSH1 0xA0 SHL SUB SWAP1 DUP2 AND SWAP1 DUP2 ISZERO PUSH2 0x220 JUMPI PUSH1 0x1 SLOAD DUP3 PUSH1 0x1 PUSH1 0x1 PUSH1 0x60 SHL SUB PUSH1 0xA0 SHL DUP3 AND OR PUSH1 0x1 SSTORE AND PUSH32 0x8BE0079C531659141344CD1FD0A4F28419497F9722A3DAAFE3B4186F6B6457E0 PUSH1 0x0 DUP1 LOG3 DUP1 RETURN JUMPDEST PUSH1 0x40 MLOAD PUSH4 0x1E4FBDF7 PUSH1 0xE0 SHL DUP2 MSTORE PUSH1 0x4 DUP2 ADD DUP5 SWAP1 MSTORE PUSH1 0x24 SWAP1 REVERT JUMPDEST POP CALLVALUE PUSH2 0x182 JUMPI PUSH1 0x20 CALLDATASIZE PUSH1 0x3 NOT ADD SLT PUSH2 0x182 JUMPI PUSH1 0x20 SWAP1 PUSH1 0xFF SWAP1 PUSH1 0x40 SWAP1 PUSH1 0x1 PUSH1 0x1 PUSH1 0xA0 SHL SUB PUSH2 0x264 PUSH2 0x1BBE JUMP JUMPDEST AND DUP2 MSTORE PUSH1 0xA DUP5 MSTORE KECCAK256 SLOAD AND PUSH1 0x40 MLOAD SWAP1 ISZERO ISZERO DUP2 MSTORE RETURN JUMPDEST POP CALLVALUE PUSH2 0x182 JUMPI PUSH1 0x20 DUP1 PUSH1 0x3 NOT CALLDATASIZE ADD SLT PUSH2 0x44C JUMPI PUSH2 0x293 PUSH2 0x1BBE JUMP JUMPDEST SWAP1 PUSH2 0x29C PUSH2 0x1E0B JUMP JUMPDEST PUSH2 0x2A4 PUSH2 0x1F77 JUMP JUMPDEST PUSH1 0x1 PUSH1 0x1 PUSH1 0xA0 SHL SUB SWAP2 DUP3 AND DUP1 DUP5 MSTORE PUSH1 0xC DUP3 MSTORE PUSH1 0x40 DUP5 KECCAK256 SLOAD SWAP3 SWAP1 SWAP2 SWAP1 DUP4 ISZERO PUSH2 0x411 JUMPI DUP3 DUP6 MSTORE PUSH1 0xC DUP3 MSTORE DUP5 PUSH1 0x40 DUP2 KECCAK256 SSTORE DUP3 ISZERO PUSH1 0x0 EQ PUSH2 0x38A JUMPI DUP5 DUP1 DUP1 DUP1 DUP8 DUP6 PUSH1 0x4 SLOAD AND GAS CALL RETURNDATASIZE ISZERO PUSH2 0x385 JUMPI RETURNDATASIZE PUSH2 0x2F7 DUP2 PUSH2 0x1C71 JUMP JUMPDEST SWAP1 PUSH2 0x305 PUSH1 0x40 MLOAD SWAP3 DUP4 PUSH2 0x1C4F JUMP JUMPDEST DUP2 MSTORE DUP7 DUP5 RETURNDATASIZE SWAP3 ADD RETURNDATACOPY JUMPDEST ISZERO PUSH2 0x34A JUMPI SWAP1 PUSH32 0x8273342A380B5301480C28BA6B7DFB7BFDA23BFD871714C935E45A15E9CB823 SWAP2 JUMPDEST PUSH1 0x4 SLOAD AND SWAP4 PUSH1 0x40 MLOAD SWAP1 DUP2 MSTORE LOG3 PUSH1 0x1 DUP2 SSTORE DUP1 RETURN JUMPDEST PUSH1 0x40 MLOAD PUSH3 0x461BCD PUSH1 0xE5 SHL DUP2 MSTORE PUSH1 0x4 DUP2 ADD DUP4 SWAP1 MSTORE PUSH1 0x13 PUSH1 0x24 DUP3 ADD MSTORE PUSH19 0x115512081D1C985B9CD9995C8819985A5B1959 PUSH1 0x6A SHL PUSH1 0x44 DUP3 ADD MSTORE PUSH1 0x64 SWAP1 REVERT JUMPDEST PUSH2 0x30E JUMP JUMPDEST PUSH1 0x4 SLOAD PUSH1 0x40 MLOAD PUSH4 0xA9059CBB PUSH1 0xE0 SHL DUP2 DUP6 ADD MSTORE SWAP1 DUP3 AND PUSH1 0x24 DUP3 ADD MSTORE PUSH1 0x44 DUP1 DUP3 ADD DUP7 SWAP1 MSTORE DUP2 MSTORE SWAP2 SWAP1 PUSH1 0x80 DUP4 ADD PUSH8 0xFFFFFFFFFFFFFFFF DUP2 GT DUP5 DUP3 LT OR PUSH2 0x3FB JUMPI PUSH32 0x8273342A380B5301480C28BA6B7DFB7BFDA23BFD871714C935E45A15E9CB823 SWAP4 PUSH2 0x3F6 SWAP2 PUSH1 0x40 MSTORE DUP6 PUSH2 0x207D JUMP JUMPDEST PUSH2 0x337 JUMP JUMPDEST PUSH4 0x4E487B71 PUSH1 0xE0 SHL PUSH1 0x0 MSTORE PUSH1 0x41 PUSH1 0x4 MSTORE PUSH1 0x24 PUSH1 0x0 REVERT JUMPDEST PUSH1 0x40 MLOAD PUSH3 0x461BCD PUSH1 0xE5 SHL DUP2 MSTORE PUSH1 0x4 DUP2 ADD DUP4 SWAP1 MSTORE PUSH1 0x13 PUSH1 0x24 DUP3 ADD MSTORE PUSH19 0x4E6F206665657320746F207769746864726177 PUSH1 0x68 SHL PUSH1 0x44 DUP3 ADD MSTORE PUSH1 0x64 SWAP1 REVERT JUMPDEST POP DUP1 REVERT JUMPDEST POP CALLVALUE PUSH2 0x182 JUMPI DUP1 PUSH1 0x3 NOT CALLDATASIZE ADD SLT PUSH2 0x182 JUMPI PUSH1 0x4 SLOAD PUSH1 0x40 MLOAD PUSH1 0x1 PUSH1 0x1 PUSH1 0xA0 SHL SUB SWAP1 SWAP2 AND DUP2 MSTORE PUSH1 0x20 SWAP1 RETURN JUMPDEST POP PUSH1 0x20 DUP1 PUSH1 0x3 NOT CALLDATASIZE ADD SLT PUSH2 0x44C JUMPI PUSH1 0x4 CALLDATALOAD PUSH2 0x492 PUSH2 0x1F77 JUMP JUMPDEST DUP1 DUP4 MSTORE PUSH1 0x7 DUP3 MSTORE PUSH1 0x40 DUP4 KECCAK256 PUSH1 0x1 DUP2 ADD SLOAD SWAP2 PUSH1 0xFF DUP4 AND PUSH1 0x2 DUP2 LT ISZERO PUSH2 0x711 JUMPI PUSH1 0x1 SUB PUSH2 0x6D8 JUMPI PUSH1 0x6 DUP3 ADD SWAP4 PUSH1 0xFF DUP6 SLOAD AND PUSH1 0x5 DUP2 LT ISZERO PUSH2 0x6C4 JUMPI PUSH2 0x68B JUMPI PUSH1 0x1 PUSH1 0x1 PUSH1 0xA0 SHL SUB SWAP4 PUSH1 0x8 SHR DUP5 AND CALLER EQ PUSH2 0x63B JUMPI PUSH1 0x2 DUP4 ADD DUP1 SLOAD DUP8 SWAP1 DUP7 DUP2 AND ISZERO PUSH2 0x622 JUMPI POP POP SLOAD DUP5 AND CALLER SUB PUSH2 0x5DE JUMPI POP SWAP1 DUP5 SWAP3 SWAP2 JUMPDEST PUSH1 0x4 PUSH1 0x3 DUP4 ADD SWAP4 DUP1 DUP6 SLOAD AND DUP1 ISZERO PUSH1 0x0 EQ PUSH2 0x5BA JUMPI POP PUSH2 0x526 DUP3 DUP6 ADD SLOAD CALLVALUE EQ PUSH2 0x1FE6 JUMP JUMPDEST DUP1 PUSH1 0x2 SLOAD AND SWAP5 SLOAD AND SWAP3 ADD SLOAD SWAP3 DUP1 EXTCODESIZE ISZERO PUSH2 0x5B6 JUMPI PUSH1 0x40 MLOAD PUSH4 0x7A443E3D PUSH1 0xE1 SHL DUP2 MSTORE CALLER PUSH1 0x4 DUP3 ADD MSTORE PUSH1 0x1 PUSH1 0x1 PUSH1 0xA0 SHL SUB SWAP4 SWAP1 SWAP4 AND PUSH1 0x24 DUP5 ADD MSTORE PUSH1 0x44 DUP4 ADD SWAP4 SWAP1 SWAP4 MSTORE PUSH1 0x64 DUP3 ADD MSTORE SWAP1 DUP3 SWAP1 DUP3 SWAP1 PUSH1 0x84 SWAP1 DUP3 SWAP1 DUP5 SWAP1 GAS CALL DUP1 ISZERO PUSH2 0x5AB JUMPI PUSH2 0x597 JUMPI JUMPDEST POP POP PUSH1 0x1 PUSH1 0xFF NOT DUP3 SLOAD AND OR SWAP1 SSTORE PUSH1 0x1 DUP2 SSTORE DUP1 RETURN JUMPDEST PUSH2 0x5A0 SWAP1 PUSH2 0x1C1E JUMP JUMPDEST PUSH2 0x44C JUMPI DUP2 CODESIZE PUSH2 0x583 JUMP JUMPDEST PUSH1 0x40 MLOAD RETURNDATASIZE DUP5 DUP3 RETURNDATACOPY RETURNDATASIZE SWAP1 REVERT JUMPDEST DUP5 DUP1 REVERT JUMPDEST PUSH2 0x5D9 SWAP1 PUSH2 0x5C8 CALLVALUE ISZERO PUSH2 0x1F9A JUMP JUMPDEST DUP3 PUSH1 0x2 SLOAD AND DUP5 DUP8 ADD SLOAD SWAP2 CALLER SWAP1 PUSH2 0x2028 JUMP JUMPDEST PUSH2 0x526 JUMP JUMPDEST PUSH1 0x64 SWAP1 PUSH1 0x40 MLOAD SWAP1 PUSH3 0x461BCD PUSH1 0xE5 SHL DUP3 MSTORE PUSH1 0x4 DUP3 ADD MSTORE PUSH1 0x1D PUSH1 0x24 DUP3 ADD MSTORE PUSH32 0x4E6F742074686520737065636966696564207061727469636970616E74000000 PUSH1 0x44 DUP3 ADD MSTORE REVERT JUMPDEST PUSH1 0x1 PUSH1 0x1 PUSH1 0xA0 SHL SUB NOT AND CALLER OR SWAP1 SWAP2 SSTORE SWAP4 SWAP3 SWAP2 SWAP1 POP PUSH2 0x503 JUMP JUMPDEST PUSH1 0x84 SWAP1 PUSH1 0x40 MLOAD SWAP1 PUSH3 0x461BCD PUSH1 0xE5 SHL DUP3 MSTORE PUSH1 0x4 DUP3 ADD MSTORE PUSH1 0x23 PUSH1 0x24 DUP3 ADD MSTORE PUSH32 0x43726561746F722063616E6E6F7420616363657074206F776E206368616C6C65 PUSH1 0x44 DUP3 ADD MSTORE PUSH3 0x6E6765 PUSH1 0xE8 SHL PUSH1 0x64 DUP3 ADD MSTORE REVERT JUMPDEST PUSH1 0x64 SWAP1 PUSH1 0x40 MLOAD SWAP1 PUSH3 0x461BCD PUSH1 0xE5 SHL DUP3 MSTORE PUSH1 0x4 DUP3 ADD MSTORE PUSH1 0x12 PUSH1 0x24 DUP3 ADD MSTORE PUSH18 0x21B430B63632B733B2903737BA1037B832B7 PUSH1 0x71 SHL PUSH1 0x44 DUP3 ADD MSTORE REVERT JUMPDEST PUSH4 0x4E487B71 PUSH1 0xE0 SHL DUP8 MSTORE PUSH1 0x21 PUSH1 0x4 MSTORE PUSH1 0x24 DUP8 REVERT JUMPDEST PUSH1 0x40 MLOAD PUSH3 0x461BCD PUSH1 0xE5 SHL DUP2 MSTORE PUSH1 0x4 DUP2 ADD DUP6 SWAP1 MSTORE PUSH1 0x11 PUSH1 0x24 DUP3 ADD MSTORE PUSH17 0x4E6F7420503250206368616C6C656E6765 PUSH1 0x78 SHL PUSH1 0x44 DUP3 ADD MSTORE PUSH1 0x64 SWAP1 REVERT JUMPDEST PUSH4 0x4E487B71 PUSH1 0xE0 SHL DUP7 MSTORE PUSH1 0x21 PUSH1 0x4 MSTORE PUSH1 0x24 DUP7 REVERT JUMPDEST POP CALLVALUE PUSH2 0x182 JUMPI PUSH1 0x20 PUSH32 0xD128F4457567637D4D9A19A54A44A6E47BA1ED0CC875B3CFF7B762C8BB27B416 PUSH2 0x757 CALLDATASIZE PUSH2 0x1BEF JUMP JUMPDEST SWAP3 SWAP1 PUSH2 0x761 PUSH2 0x1E0B JUMP JUMPDEST PUSH1 0x1 PUSH1 0x1 PUSH1 0xA0 SHL SUB AND SWAP3 PUSH2 0x776 DUP5 ISZERO ISZERO PUSH2 0x222D JUMP JUMPDEST DUP4 DUP6 MSTORE PUSH1 0xA DUP3 MSTORE PUSH2 0x796 DUP2 PUSH1 0x40 DUP8 KECCAK256 SWAP1 PUSH1 0xFF DUP1 NOT DUP4 SLOAD AND SWAP2 ISZERO ISZERO AND OR SWAP1 SSTORE JUMP JUMPDEST PUSH1 0x40 MLOAD SWAP1 ISZERO ISZERO DUP2 MSTORE LOG2 DUP1 RETURN JUMPDEST POP CALLVALUE PUSH2 0x182 JUMPI PUSH1 0x20 CALLDATASIZE PUSH1 0x3 NOT ADD SLT PUSH2 0x182 JUMPI PUSH1 0x20 SWAP1 PUSH1 0xFF SWAP1 PUSH1 0x40 SWAP1 PUSH1 0x1 PUSH1 0x1 PUSH1 0xA0 SHL SUB PUSH2 0x7CD PUSH2 0x1BBE JUMP JUMPDEST AND DUP2 MSTORE PUSH1 0xB DUP5 MSTORE KECCAK256 SLOAD AND PUSH1 0x40 MLOAD SWAP1 ISZERO ISZERO DUP2 MSTORE RETURN JUMPDEST POP CALLVALUE PUSH2 0x182 JUMPI DUP1 PUSH1 0x3 NOT CALLDATASIZE ADD SLT PUSH2 0x182 JUMPI PUSH1 0x20 PUSH1 0x6 SLOAD PUSH1 0x40 MLOAD SWAP1 DUP2 MSTORE RETURN JUMPDEST POP CALLVALUE PUSH2 0x182 JUMPI PUSH1 0x80 CALLDATASIZE PUSH1 0x3 NOT ADD SLT PUSH2 0x182 JUMPI PUSH2 0x819 PUSH2 0x1BBE JUMP JUMPDEST PUSH8 0xFFFFFFFFFFFFFFFF SWAP2 PUSH1 0x24 CALLDATALOAD SWAP2 SWAP1 PUSH1 0x44 CALLDATALOAD PUSH1 0x64 CALLDATALOAD DUP6 DUP2 GT PUSH2 0xAAB JUMPI PUSH2 0x843 SWAP1 CALLDATASIZE SWAP1 PUSH1 0x4 ADD PUSH2 0x1CFD JUMP JUMPDEST SWAP5 SWAP1 SWAP4 PUSH2 0x84E PUSH2 0x1E0B JUMP JUMPDEST PUSH2 0x856 PUSH2 0x1F77 JUMP JUMPDEST PUSH1 0x1 PUSH1 0x1 PUSH1 0xA0 SHL SUB AND SWAP2 DUP3 ISZERO PUSH2 0xA6E JUMPI DUP3 DUP5 MSTORE PUSH1 0x20 SWAP7 PUSH1 0xB DUP9 MSTORE PUSH2 0x881 PUSH1 0xFF PUSH1 0x40 DUP8 KECCAK256 SLOAD AND ISZERO PUSH2 0x1E37 JUMP JUMPDEST PUSH2 0x88C DUP4 ISZERO ISZERO PUSH2 0x1E7A JUMP JUMPDEST PUSH2 0x897 DUP3 ISZERO ISZERO PUSH2 0x1EBA JUMP JUMPDEST PUSH2 0x8A5 PUSH2 0x1F4 DUP4 GT ISZERO PUSH2 0x1F06 JUMP JUMPDEST PUSH1 0x5 SLOAD SWAP7 PUSH2 0x8B2 DUP9 PUSH2 0x1F52 JUMP JUMPDEST PUSH1 0x5 SSTORE DUP8 DUP7 MSTORE PUSH1 0x7 DUP10 MSTORE PUSH1 0x40 DUP7 KECCAK256 DUP9 DUP2 SSTORE PUSH1 0x1 DUP1 DUP3 ADD DUP1 SLOAD PUSH1 0x1 PUSH1 0x1 PUSH1 0xA8 SHL SUB NOT AND CALLER PUSH1 0x8 SHL PUSH2 0x100 PUSH1 0x1 PUSH1 0xA8 SHL SUB AND OR SWAP1 SSTORE SWAP8 SWAP1 PUSH1 0x9 SWAP1 PUSH1 0xFF NOT PUSH1 0x3 DUP3 ADD DUP10 PUSH1 0x1 PUSH1 0x1 PUSH1 0x60 SHL SUB PUSH1 0xA0 SHL DUP3 SLOAD AND OR SWAP1 SSTORE DUP8 PUSH1 0x4 DUP4 ADD SSTORE DUP7 PUSH1 0x5 DUP4 ADD SSTORE PUSH1 0x6 DUP3 ADD SWAP1 DUP2 SLOAD AND SWAP1 SSTORE TIMESTAMP PUSH1 0x7 DUP3 ADD SSTORE ADD SWAP3 DUP3 GT PUSH2 0xA5A JUMPI DUP2 SWAP1 PUSH2 0x933 DUP5 SLOAD PUSH2 0x1D2B JUMP JUMPDEST PUSH1 0x1F DUP2 GT PUSH2 0xA0A JUMPI JUMPDEST POP DUP8 SWAP1 PUSH1 0x1F DUP4 GT PUSH1 0x1 EQ PUSH2 0x9AA JUMPI DUP9 SWAP3 PUSH2 0x99F JUMPI JUMPDEST POP POP PUSH1 0x0 NOT PUSH1 0x3 DUP4 SWAP1 SHL SHR NOT AND SWAP1 DUP8 SHL OR SWAP1 SSTORE JUMPDEST PUSH1 0x40 MLOAD SWAP2 DUP3 MSTORE DUP7 DUP3 ADD MSTORE DUP5 PUSH32 0xAC61621ED399481A7FDD906A7B94C9D3667DEE8643E9C121E783B860A3F2282D PUSH1 0x40 CALLER SWAP4 LOG4 SSTORE PUSH1 0x40 MLOAD SWAP1 DUP2 MSTORE RETURN JUMPDEST ADD CALLDATALOAD SWAP1 POP CODESIZE DUP1 PUSH2 0x951 JUMP JUMPDEST DUP5 DUP10 MSTORE DUP12 DUP10 KECCAK256 DUP11 SWAP5 POP SWAP2 PUSH1 0x1F NOT DUP5 AND DUP11 DUP15 JUMPDEST DUP3 DUP3 LT PUSH2 0x9F3 JUMPI POP POP DUP5 GT PUSH2 0x9D9 JUMPI JUMPDEST POP POP POP DUP2 SHL ADD SWAP1 SSTORE PUSH2 0x965 JUMP JUMPDEST ADD CALLDATALOAD PUSH1 0x0 NOT PUSH1 0x3 DUP5 SWAP1 SHL PUSH1 0xF8 AND SHR NOT AND SWAP1 SSTORE CODESIZE DUP1 DUP1 PUSH2 0x9CC JUMP JUMPDEST DUP4 DUP6 ADD CALLDATALOAD DUP7 SSTORE DUP14 SWAP8 SWAP1 SWAP6 ADD SWAP5 SWAP3 DUP4 ADD SWAP3 ADD DUP15 PUSH2 0x9BC JUMP JUMPDEST SWAP1 SWAP2 POP DUP4 DUP9 MSTORE DUP11 DUP9 KECCAK256 PUSH1 0x1F DUP5 ADD PUSH1 0x5 SHR DUP2 ADD SWAP2 DUP13 DUP6 LT PUSH2 0xA50 JUMPI JUMPDEST DUP5 SWAP4 SWAP3 SWAP2 PUSH1 0x1F DUP13 SWAP3 ADD PUSH1 0x5 SHR ADD SWAP2 JUMPDEST DUP3 DUP2 LT PUSH2 0xA42 JUMPI POP POP PUSH2 0x93C JUMP JUMPDEST DUP11 DUP2 SSTORE DUP6 SWAP5 POP DUP12 SWAP2 ADD PUSH2 0xA34 JUMP JUMPDEST SWAP1 SWAP2 POP DUP2 SWAP1 PUSH2 0xA25 JUMP JUMPDEST PUSH4 0x4E487B71 PUSH1 0xE0 SHL DUP8 MSTORE PUSH1 0x41 PUSH1 0x4 MSTORE PUSH1 0x24 DUP8 REVERT JUMPDEST PUSH1 0x40 MLOAD PUSH3 0x461BCD PUSH1 0xE5 SHL DUP2 MSTORE PUSH1 0x20 PUSH1 0x4 DUP3 ADD MSTORE PUSH1 0x15 PUSH1 0x24 DUP3 ADD MSTORE PUSH21 0x24B73B30B634B2103830BCB6B2B73A103A37B5B2B7 PUSH1 0x59 SHL PUSH1 0x44 DUP3 ADD MSTORE PUSH1 0x64 SWAP1 REVERT JUMPDEST DUP3 DUP1 REVERT JUMPDEST POP CALLVALUE PUSH2 0x182 JUMPI PUSH1 0x20 CALLDATASIZE PUSH1 0x3 NOT ADD SLT PUSH2 0x182 JUMPI PUSH1 0x40 PUSH1 0x20 SWAP2 PUSH1 0x4 CALLDATALOAD DUP2 MSTORE PUSH1 0x7 DUP4 MSTORE KECCAK256 PUSH2 0xB88 DUP2 SLOAD SWAP2 PUSH1 0x1 DUP2 ADD SLOAD SWAP1 PUSH1 0x1 DUP1 PUSH1 0xA0 SHL SUB DUP1 PUSH1 0x2 DUP4 ADD SLOAD AND SWAP1 DUP1 PUSH1 0x3 DUP5 ADD SLOAD AND PUSH1 0x4 DUP5 ADD SLOAD PUSH1 0x5 DUP6 ADD SLOAD SWAP1 PUSH1 0x6 DUP7 ADD SLOAD SWAP3 PUSH1 0x7 DUP8 ADD SLOAD SWAP6 DUP6 PUSH2 0xB1B PUSH1 0x9 PUSH1 0x8 DUP12 ADD SLOAD SWAP11 ADD PUSH2 0x1D65 JUMP JUMPDEST SWAP10 PUSH2 0xB33 PUSH1 0x40 MLOAD SWAP15 DUP16 SWAP15 DUP16 SWAP1 DUP2 MSTORE ADD PUSH1 0xFF DUP4 AND PUSH2 0x1C8D JUMP JUMPDEST PUSH1 0x8 SHR AND PUSH1 0x40 DUP13 ADD MSTORE PUSH1 0x60 DUP12 ADD MSTORE PUSH1 0x80 DUP11 ADD MSTORE PUSH1 0xA0 DUP10 ADD MSTORE PUSH1 0xC0 DUP9 ADD MSTORE PUSH2 0xB60 PUSH1 0xE0 DUP9 ADD PUSH1 0xFF DUP4 AND PUSH2 0x1CB0 JUMP JUMPDEST PUSH1 0x8 SHR AND PUSH2 0x100 DUP7 ADD MSTORE PUSH2 0x120 DUP6 ADD MSTORE PUSH2 0x140 DUP5 ADD MSTORE PUSH2 0x180 DUP1 PUSH2 0x160 DUP6 ADD MSTORE DUP4 ADD SWAP1 PUSH2 0x1CBD JUMP JUMPDEST SUB SWAP1 RETURN JUMPDEST POP CALLVALUE PUSH2 0x182 JUMPI DUP1 PUSH1 0x3 NOT CALLDATASIZE ADD SLT PUSH2 0x182 JUMPI PUSH1 0x1 SLOAD PUSH1 0x40 MLOAD PUSH1 0x1 PUSH1 0x1 PUSH1 0xA0 SHL SUB SWAP1 SWAP2 AND DUP2 MSTORE PUSH1 0x20 SWAP1 RETURN JUMPDEST POP CALLVALUE PUSH2 0x182 JUMPI PUSH1 0x20 CALLDATASIZE PUSH1 0x3 NOT ADD SLT PUSH2 0x182 JUMPI PUSH1 0x20 SWAP1 PUSH1 0x40 SWAP1 PUSH1 0x1 PUSH1 0x1 PUSH1 0xA0 SHL SUB PUSH2 0xBDD PUSH2 0x1BBE JUMP JUMPDEST AND DUP2 MSTORE PUSH1 0xC DUP4 MSTORE KECCAK256 SLOAD PUSH1 0x40 MLOAD SWAP1 DUP2 MSTORE RETURN JUMPDEST POP CALLVALUE PUSH2 0x182 JUMPI PUSH1 0x20 CALLDATASIZE PUSH1 0x3 NOT ADD SLT PUSH2 0x182 JUMPI PUSH1 0x4 CALLDATALOAD PUSH2 0xC0B PUSH2 0x1E0B JUMP JUMPDEST PUSH2 0x2710 DUP2 GT PUSH2 0xC46 JUMPI PUSH1 0x20 DUP2 PUSH32 0xD0A5DDFA06600C6481DCD2923A572827C06E53859F23F7DDAB41FF3144EE8687 SWAP3 PUSH1 0x6 SSTORE PUSH1 0x40 MLOAD SWAP1 DUP2 MSTORE LOG1 DUP1 RETURN JUMPDEST PUSH1 0x40 MLOAD PUSH3 0x461BCD PUSH1 0xE5 SHL DUP2 MSTORE PUSH1 0x20 PUSH1 0x4 DUP3 ADD MSTORE PUSH1 0xC PUSH1 0x24 DUP3 ADD MSTORE PUSH12 0x8CCACA40E8DEDE40D0D2CED PUSH1 0xA3 SHL PUSH1 0x44 DUP3 ADD MSTORE PUSH1 0x64 SWAP1 REVERT JUMPDEST POP PUSH1 0xA0 CALLDATASIZE PUSH1 0x3 NOT ADD SLT PUSH2 0x182 JUMPI PUSH2 0xC8F PUSH2 0x1BBE JUMP JUMPDEST PUSH2 0xC97 PUSH2 0x1BD9 JUMP JUMPDEST PUSH8 0xFFFFFFFFFFFFFFFF SWAP2 PUSH1 0x84 CALLDATALOAD DUP4 DUP2 GT PUSH2 0x5B6 JUMPI PUSH2 0xCB9 SWAP1 CALLDATASIZE SWAP1 PUSH1 0x4 ADD PUSH2 0x1CFD JUMP JUMPDEST PUSH2 0xCC4 SWAP5 SWAP2 SWAP5 PUSH2 0x1F77 JUMP JUMPDEST PUSH1 0x1 PUSH1 0x1 PUSH1 0xA0 SHL SUB DUP4 AND PUSH2 0xFEC JUMPI JUMPDEST PUSH1 0x1 PUSH1 0x1 PUSH1 0xA0 SHL SUB DUP5 AND DUP7 MSTORE PUSH1 0xB PUSH1 0x20 MSTORE PUSH1 0x40 DUP7 KECCAK256 SLOAD PUSH2 0xCF6 SWAP1 PUSH1 0xFF AND ISZERO PUSH2 0x1E37 JUMP JUMPDEST PUSH2 0xD03 PUSH1 0x44 CALLDATALOAD ISZERO ISZERO PUSH2 0x1E7A JUMP JUMPDEST PUSH2 0xD10 PUSH1 0x64 CALLDATALOAD ISZERO ISZERO PUSH2 0x1EBA JUMP JUMPDEST PUSH2 0xD20 PUSH2 0x1F4 PUSH1 0x64 CALLDATALOAD GT ISZERO PUSH2 0x1F06 JUMP JUMPDEST PUSH1 0x1 PUSH1 0x1 PUSH1 0xA0 SHL SUB DUP5 AND PUSH2 0xFBD JUMPI PUSH2 0xD3B PUSH1 0x44 CALLDATALOAD CALLVALUE EQ PUSH2 0x1FE6 JUMP JUMPDEST PUSH1 0x5 SLOAD SWAP5 PUSH2 0xD48 DUP7 PUSH2 0x1F52 JUMP JUMPDEST PUSH1 0x5 SSTORE DUP6 DUP8 MSTORE PUSH1 0x7 PUSH1 0x20 MSTORE PUSH1 0x40 DUP8 KECCAK256 DUP7 DUP2 SSTORE PUSH1 0x1 DUP1 DUP3 ADD DUP1 SLOAD PUSH1 0x1 PUSH1 0x1 PUSH1 0xA8 SHL SUB NOT AND CALLER PUSH1 0x8 SHL PUSH2 0x100 PUSH1 0x1 PUSH1 0xA8 SHL SUB AND OR SWAP1 SWAP2 OR SWAP1 SSTORE SWAP3 PUSH1 0xFF NOT PUSH1 0x2 DUP6 ADD DUP1 SLOAD PUSH1 0x1 PUSH1 0x1 PUSH1 0xA0 SHL SUB DUP9 DUP2 AND PUSH1 0x1 PUSH1 0x1 PUSH1 0xA0 SHL SUB NOT SWAP3 DUP4 AND OR SWAP1 SWAP3 SSTORE PUSH1 0x3 DUP8 ADD DUP1 SLOAD SWAP3 DUP11 AND SWAP3 SWAP1 SWAP2 AND SWAP2 SWAP1 SWAP2 OR SWAP1 SSTORE PUSH1 0x44 CALLDATALOAD PUSH1 0x4 DUP7 ADD SSTORE PUSH1 0x64 CALLDATALOAD PUSH1 0x5 DUP7 ADD SSTORE PUSH1 0x6 DUP6 ADD DUP1 SLOAD SWAP2 SWAP1 SWAP2 AND SWAP1 SSTORE TIMESTAMP PUSH1 0x7 DUP6 ADD SSTORE DUP3 GT PUSH2 0xA5A JUMPI PUSH2 0xDEC PUSH1 0x9 DUP5 ADD SLOAD PUSH2 0x1D2B JUMP JUMPDEST PUSH1 0x1F DUP2 GT PUSH2 0xF79 JUMPI JUMPDEST POP DUP7 SWAP1 PUSH1 0x1F DUP4 GT PUSH1 0x1 EQ PUSH2 0xF0C JUMPI PUSH1 0x9 SWAP3 SWAP2 DUP9 SWAP2 DUP4 PUSH2 0xF01 JUMPI JUMPDEST POP POP DUP2 PUSH1 0x1 SHL SWAP2 PUSH1 0x0 NOT SWAP1 PUSH1 0x3 SHL SHR NOT AND OR SWAP2 ADD SSTORE JUMPDEST PUSH1 0x2 SLOAD PUSH1 0x1 PUSH1 0x1 PUSH1 0xA0 SHL SUB AND DUP1 EXTCODESIZE ISZERO PUSH2 0x5B6 JUMPI PUSH1 0x40 MLOAD PUSH4 0x7A443E3D PUSH1 0xE1 SHL DUP2 MSTORE CALLER PUSH1 0x4 DUP3 ADD MSTORE PUSH1 0x1 PUSH1 0x1 PUSH1 0xA0 SHL SUB DUP5 AND PUSH1 0x24 DUP3 ADD MSTORE PUSH1 0x44 DUP1 CALLDATALOAD SWAP1 DUP3 ADD MSTORE PUSH1 0x64 DUP2 ADD DUP6 SWAP1 MSTORE SWAP1 DUP6 SWAP1 DUP3 SWAP1 PUSH1 0x84 SWAP1 DUP3 SWAP1 DUP5 SWAP1 GAS CALL DUP1 ISZERO PUSH2 0xEF6 JUMPI PUSH2 0xEDE JUMPI JUMPDEST POP SWAP3 PUSH1 0x1 SWAP2 PUSH1 0x20 SWAP5 PUSH1 0x40 MLOAD SWAP2 DUP5 DUP1 PUSH1 0xA0 SHL SUB AND DUP3 MSTORE PUSH1 0x44 CALLDATALOAD DUP7 DUP4 ADD MSTORE PUSH1 0x64 CALLDATALOAD PUSH1 0x40 DUP4 ADD MSTORE DUP4 DUP1 PUSH1 0xA0 SHL SUB AND SWAP1 DUP5 PUSH32 0xF4F5A9F479B06CD99960B03CDDC4864CB98EAA763A8F668617C80F5895127779 PUSH1 0x60 CALLER SWAP4 LOG4 SSTORE PUSH1 0x40 MLOAD SWAP1 DUP2 MSTORE RETURN JUMPDEST PUSH2 0xEE8 DUP6 SWAP2 PUSH2 0x1C1E JUMP JUMPDEST PUSH2 0xEF2 JUMPI CODESIZE PUSH2 0xE82 JUMP JUMPDEST DUP4 DUP1 REVERT JUMPDEST PUSH1 0x40 MLOAD RETURNDATASIZE DUP8 DUP3 RETURNDATACOPY RETURNDATASIZE SWAP1 REVERT JUMPDEST ADD CALLDATALOAD SWAP1 POP CODESIZE DUP1 PUSH2 0xE0F JUMP JUMPDEST PUSH1 0x9 DUP5 ADD DUP9 MSTORE PUSH1 0x20 DUP9 KECCAK256 SWAP2 DUP9 JUMPDEST PUSH1 0x1F NOT DUP6 AND DUP2 LT PUSH2 0xF61 JUMPI POP SWAP2 DUP4 SWAP2 PUSH1 0x1 SWAP4 PUSH1 0x9 SWAP6 PUSH1 0x1F NOT DUP2 AND LT PUSH2 0xF47 JUMPI JUMPDEST POP POP POP DUP2 SHL ADD SWAP2 ADD SSTORE PUSH2 0xE25 JUMP JUMPDEST ADD CALLDATALOAD PUSH1 0x0 NOT PUSH1 0x3 DUP5 SWAP1 SHL PUSH1 0xF8 AND SHR NOT AND SWAP1 SSTORE CODESIZE DUP1 DUP1 PUSH2 0xF39 JUMP JUMPDEST SWAP1 SWAP3 PUSH1 0x20 PUSH1 0x1 DUP2 SWAP3 DUP7 DUP7 ADD CALLDATALOAD DUP2 SSTORE ADD SWAP5 ADD SWAP2 ADD PUSH2 0xF19 JUMP JUMPDEST PUSH1 0x9 DUP5 ADD DUP9 MSTORE PUSH1 0x20 DUP9 KECCAK256 PUSH1 0x1F DUP5 ADD PUSH1 0x5 SHR DUP2 ADD PUSH1 0x20 DUP6 LT PUSH2 0xFB6 JUMPI JUMPDEST PUSH1 0x1F DUP4 ADD PUSH1 0x5 SHR DUP3 ADD DUP2 LT PUSH2 0xFAB JUMPI POP POP PUSH2 0xDF5 JUMP JUMPDEST DUP10 DUP2 SSTORE PUSH1 0x1 ADD PUSH2 0xF95 JUMP JUMPDEST POP DUP1 PUSH2 0xF95 JUMP JUMPDEST PUSH2 0xFC7 CALLVALUE ISZERO PUSH2 0x1F9A JUMP JUMPDEST PUSH1 0x2 SLOAD PUSH2 0xFE7 SWAP1 PUSH1 0x44 CALLDATALOAD SWAP1 PUSH1 0x1 PUSH1 0x1 PUSH1 0xA0 SHL SUB SWAP1 DUP2 AND SWAP1 CALLER SWAP1 DUP9 AND PUSH2 0x2028 JUMP JUMPDEST PUSH2 0xD3B JUMP JUMPDEST CALLER PUSH1 0x1 PUSH1 0x1 PUSH1 0xA0 SHL SUB DUP5 AND SUB PUSH2 0xCD3 JUMPI PUSH1 0x40 MLOAD PUSH3 0x461BCD PUSH1 0xE5 SHL DUP2 MSTORE PUSH1 0x20 PUSH1 0x4 DUP3 ADD MSTORE PUSH1 0x19 PUSH1 0x24 DUP3 ADD MSTORE PUSH32 0x43616E6E6F74206368616C6C656E676520796F757273656C6600000000000000 PUSH1 0x44 DUP3 ADD MSTORE PUSH1 0x64 SWAP1 REVERT JUMPDEST POP CALLVALUE PUSH2 0x182 JUMPI DUP1 PUSH1 0x3 NOT CALLDATASIZE ADD SLT PUSH2 0x182 JUMPI PUSH2 0x105A PUSH2 0x1E0B JUMP JUMPDEST PUSH1 0x1 DUP1 SLOAD PUSH1 0x1 PUSH1 0x1 PUSH1 0xA0 SHL SUB NOT DUP2 AND SWAP1 SWAP2 SSTORE PUSH1 0x0 SWAP1 PUSH1 0x1 PUSH1 0x1 PUSH1 0xA0 SHL SUB AND PUSH32 0x8BE0079C531659141344CD1FD0A4F28419497F9722A3DAAFE3B4186F6B6457E0 DUP3 DUP1 LOG3 DUP1 RETURN JUMPDEST POP CALLVALUE PUSH2 0x182 JUMPI PUSH1 0x20 CALLDATASIZE PUSH1 0x3 NOT ADD SLT PUSH2 0x182 JUMPI PUSH2 0x10B9 PUSH2 0x1BBE JUMP JUMPDEST PUSH2 0x10C1 PUSH2 0x1E0B JUMP JUMPDEST PUSH1 0x1 PUSH1 0x1 PUSH1 0xA0 SHL SUB AND DUP1 ISZERO PUSH2 0x1109 JUMPI PUSH1 0x3 DUP1 SLOAD PUSH1 0x1 PUSH1 0x1 PUSH1 0xA0 SHL SUB NOT AND DUP3 OR SWAP1 SSTORE PUSH32 0x54E4612788F90384E6843298D7854436F3A585B2C3831AB66ABF1DE63BFA6C2D DUP3 DUP1 LOG2 DUP1 RETURN JUMPDEST PUSH1 0x40 MLOAD PUSH3 0x461BCD PUSH1 0xE5 SHL DUP2 MSTORE PUSH1 0x20 PUSH1 0x4 DUP3 ADD MSTORE PUSH1 0xD PUSH1 0x24 DUP3 ADD MSTORE PUSH13 0x24B73B30B634B21030B236B4B7 PUSH1 0x99 SHL PUSH1 0x44 DUP3 ADD MSTORE PUSH1 0x64 SWAP1 REVERT JUMPDEST POP CALLVALUE PUSH2 0x182 JUMPI PUSH1 0x20 CALLDATASIZE PUSH1 0x3 NOT ADD SLT PUSH2 0x182 JUMPI PUSH1 0x40 PUSH1 0x20 SWAP2 PUSH1 0x4 CALLDATALOAD DUP2 MSTORE PUSH1 0x9 DUP4 MSTORE KECCAK256 SLOAD PUSH1 0x40 MLOAD SWAP1 DUP2 MSTORE RETURN JUMPDEST POP CALLVALUE PUSH2 0x182 JUMPI PUSH1 0x20 DUP1 PUSH1 0x3 NOT CALLDATASIZE ADD SLT PUSH2 0x44C JUMPI PUSH1 0x4 CALLDATALOAD SWAP1 PUSH2 0x1187 PUSH2 0x1F77 JUMP JUMPDEST DUP2 DUP4 MSTORE PUSH1 0x7 DUP2 MSTORE PUSH1 0x40 DUP4 KECCAK256 SWAP2 PUSH1 0x6 DUP4 ADD DUP1 SLOAD SWAP1 PUSH1 0xFF DUP3 AND PUSH1 0x5 DUP2 LT ISZERO PUSH2 0x6C4 JUMPI PUSH1 0x2 SUB PUSH2 0x12CC JUMPI PUSH1 0x1 PUSH1 0x1 PUSH1 0xA0 SHL SUB SWAP2 PUSH1 0x8 DUP2 SWAP1 SHR DUP4 AND CALLER DUP2 SUB PUSH2 0x128F JUMPI ISZERO PUSH2 0x125A JUMPI PUSH1 0x40 MLOAD PUSH1 0x40 DUP2 ADD DUP2 DUP2 LT PUSH8 0xFFFFFFFFFFFFFFFF DUP3 GT OR PUSH2 0x3FB JUMPI PUSH1 0x40 MSTORE PUSH1 0x1 DUP2 MSTORE DUP6 DUP2 ADD SWAP1 DUP7 CALLDATASIZE DUP4 CALLDATACOPY MLOAD ISZERO PUSH2 0x1246 JUMPI SWAP2 PUSH1 0x3 PUSH32 0x401AF6ACAF4DFD2AB7650E060F96CF76F6A51FD9D42102601E60FDACD4EACFF2 SWAP5 SWAP3 PUSH1 0x4 SWAP5 CALLER SWAP1 MSTORE PUSH1 0xFF NOT AND OR SWAP1 SSTORE PUSH1 0x3 DUP7 ADD SLOAD AND SWAP5 ADD SLOAD SWAP3 PUSH1 0x40 MLOAD SWAP4 DUP5 MSTORE CALLER SWAP4 LOG4 PUSH1 0x1 DUP2 SSTORE DUP1 RETURN JUMPDEST PUSH4 0x4E487B71 PUSH1 0xE0 SHL DUP9 MSTORE PUSH1 0x32 PUSH1 0x4 MSTORE PUSH1 0x24 DUP9 REVERT JUMPDEST PUSH1 0x40 MLOAD PUSH3 0x461BCD PUSH1 0xE5 SHL DUP2 MSTORE PUSH1 0x4 DUP2 ADD DUP7 SWAP1 MSTORE PUSH1 0xD PUSH1 0x24 DUP3 ADD MSTORE PUSH13 0x139BC81DDA5B9B995C881CD95D PUSH1 0x9A SHL PUSH1 0x44 DUP3 ADD MSTORE PUSH1 0x64 SWAP1 REVERT JUMPDEST PUSH1 0x40 MLOAD PUSH3 0x461BCD PUSH1 0xE5 SHL DUP2 MSTORE PUSH1 0x4 DUP2 ADD DUP8 SWAP1 MSTORE PUSH1 0x15 PUSH1 0x24 DUP3 ADD MSTORE PUSH21 0x4F6E6C792077696E6E65722063616E20636C61696D PUSH1 0x58 SHL PUSH1 0x44 DUP3 ADD MSTORE PUSH1 0x64 SWAP1 REVERT JUMPDEST PUSH1 0x40 MLOAD PUSH3 0x461BCD PUSH1 0xE5 SHL DUP2 MSTORE PUSH1 0x4 DUP2 ADD DUP6 SWAP1 MSTORE PUSH1 0x16 PUSH1 0x24 DUP3 ADD MSTORE PUSH22 0x10DA185B1B195B99D9481B9BDD081C995CDBDB1D9959 PUSH1 0x52 SHL PUSH1 0x44 DUP3 ADD MSTORE PUSH1 0x64 SWAP1 REVERT JUMPDEST POP CALLVALUE PUSH2 0x182 JUMPI PUSH1 0x20 CALLDATASIZE PUSH1 0x3 NOT ADD SLT PUSH2 0x182 JUMPI PUSH1 0x60 PUSH2 0x160 PUSH1 0x40 MLOAD PUSH2 0x132D DUP2 PUSH2 0x1C32 JUMP JUMPDEST DUP4 DUP2 MSTORE DUP4 PUSH1 0x20 DUP3 ADD MSTORE DUP4 PUSH1 0x40 DUP3 ADD MSTORE DUP4 DUP4 DUP3 ADD MSTORE DUP4 PUSH1 0x80 DUP3 ADD MSTORE DUP4 PUSH1 0xA0 DUP3 ADD MSTORE DUP4 PUSH1 0xC0 DUP3 ADD MSTORE DUP4 PUSH1 0xE0 DUP3 ADD MSTORE DUP4 PUSH2 0x100 DUP3 ADD MSTORE DUP4 PUSH2 0x120 DUP3 ADD MSTORE DUP4 PUSH2 0x140 DUP3 ADD MSTORE ADD MSTORE PUSH1 0x4 CALLDATALOAD DUP2 MSTORE PUSH1 0x7 PUSH1 0x20 MSTORE PUSH1 0x40 DUP2 KECCAK256 SWAP1 PUSH1 0x40 MLOAD SWAP1 PUSH2 0x138C DUP3 PUSH2 0x1C32 JUMP JUMPDEST DUP3 SLOAD DUP3 MSTORE PUSH1 0x1 DUP4 ADD SLOAD PUSH1 0xFF DUP2 AND PUSH1 0x2 DUP2 LT ISZERO PUSH2 0x150F JUMPI PUSH1 0x20 DUP5 ADD MSTORE PUSH1 0x8 SHR PUSH1 0x1 PUSH1 0x1 PUSH1 0xA0 SHL SUB SWAP1 DUP2 AND PUSH1 0x40 DUP5 ADD MSTORE PUSH1 0x2 DUP5 ADD SLOAD DUP2 AND PUSH1 0x60 DUP5 ADD MSTORE PUSH1 0x3 DUP5 ADD SLOAD AND PUSH1 0x80 DUP4 ADD MSTORE PUSH1 0x4 DUP4 ADD SLOAD PUSH1 0xA0 DUP4 ADD MSTORE PUSH1 0x5 DUP1 DUP5 ADD SLOAD PUSH1 0xC0 DUP5 ADD MSTORE PUSH1 0x6 DUP5 ADD SLOAD SWAP2 PUSH1 0xFF DUP4 AND SWAP2 DUP3 LT ISZERO PUSH2 0x14FB JUMPI POP PUSH1 0xE0 DUP4 ADD MSTORE PUSH1 0x8 SWAP1 DUP2 SHR PUSH1 0x1 PUSH1 0x1 PUSH1 0xA0 SHL SUB AND PUSH2 0x100 DUP4 ADD MSTORE PUSH1 0x7 DUP4 ADD SLOAD PUSH2 0x120 DUP4 ADD MSTORE DUP3 ADD SLOAD PUSH2 0x140 DUP3 ADD MSTORE PUSH2 0x160 SWAP2 PUSH2 0x1436 SWAP1 PUSH1 0x9 ADD PUSH2 0x1D65 JUMP JUMPDEST DUP3 DUP3 ADD MSTORE PUSH2 0xB88 PUSH1 0x40 MLOAD SWAP3 DUP4 SWAP3 PUSH1 0x20 DUP5 MSTORE DUP1 MLOAD PUSH1 0x20 DUP6 ADD MSTORE PUSH2 0x1460 PUSH1 0x20 DUP3 ADD MLOAD PUSH1 0x40 DUP7 ADD SWAP1 PUSH2 0x1C8D JUMP JUMPDEST PUSH1 0x1 DUP1 PUSH1 0xA0 SHL SUB PUSH1 0x40 DUP3 ADD MLOAD AND PUSH1 0x60 DUP6 ADD MSTORE PUSH1 0x1 DUP1 PUSH1 0xA0 SHL SUB PUSH1 0x60 DUP3 ADD MLOAD AND PUSH1 0x80 DUP6 ADD MSTORE PUSH1 0x1 DUP1 PUSH1 0xA0 SHL SUB PUSH1 0x80 DUP3 ADD MLOAD AND PUSH1 0xA0 DUP6 ADD MSTORE PUSH1 0xA0 DUP2 ADD MLOAD PUSH1 0xC0 DUP6 ADD MSTORE PUSH1 0xC0 DUP2 ADD MLOAD PUSH1 0xE0 DUP6 ADD MSTORE PUSH2 0x14BD PUSH1 0xE0 DUP3 ADD MLOAD PUSH2 0x100 DUP7 ADD SWAP1 PUSH2 0x1CB0 JUMP JUMPDEST PUSH1 0x1 DUP1 PUSH1 0xA0 SHL SUB PUSH2 0x100 DUP3 ADD MLOAD AND PUSH2 0x120 DUP6 ADD MSTORE PUSH2 0x120 DUP2 ADD MLOAD PUSH2 0x140 DUP6 ADD MSTORE PUSH2 0x140 DUP2 ADD MLOAD DUP3 DUP6 ADD MSTORE ADD MLOAD PUSH2 0x180 DUP1 DUP5 ADD MSTORE PUSH2 0x1A0 DUP4 ADD SWAP1 PUSH2 0x1CBD JUMP JUMPDEST PUSH4 0x4E487B71 PUSH1 0xE0 SHL DUP2 MSTORE PUSH1 0x21 PUSH1 0x4 MSTORE PUSH1 0x24 SWAP1 REVERT JUMPDEST PUSH4 0x4E487B71 PUSH1 0xE0 SHL DUP4 MSTORE PUSH1 0x21 PUSH1 0x4 MSTORE PUSH1 0x24 DUP4 REVERT JUMPDEST POP CALLVALUE PUSH2 0x182 JUMPI PUSH1 0x60 CALLDATASIZE PUSH1 0x3 NOT ADD SLT PUSH2 0x182 JUMPI PUSH1 0x4 CALLDATALOAD PUSH2 0x1540 PUSH2 0x1BD9 JUMP JUMPDEST PUSH1 0x44 CALLDATALOAD SWAP2 PUSH8 0xFFFFFFFFFFFFFFFF SWAP1 DUP2 DUP5 GT PUSH2 0x5B6 JUMPI CALLDATASIZE PUSH1 0x23 DUP6 ADD SLT ISZERO PUSH2 0x5B6 JUMPI DUP4 PUSH1 0x4 ADD CALLDATALOAD SWAP3 PUSH2 0x156F DUP5 PUSH2 0x1C71 JUMP JUMPDEST PUSH2 0x157C PUSH1 0x40 MLOAD SWAP2 DUP3 PUSH2 0x1C4F JUMP JUMPDEST DUP5 DUP2 MSTORE DUP7 PUSH1 0x24 SWAP7 CALLDATASIZE DUP9 DUP9 DUP4 ADD ADD GT PUSH2 0x44C JUMPI DUP7 DUP9 SWAP8 PUSH1 0x20 SWAP9 DUP10 SWAP4 ADD DUP4 DUP7 ADD CALLDATACOPY DUP4 ADD ADD MSTORE PUSH2 0x15A7 PUSH2 0x1F77 JUMP JUMPDEST DUP3 DUP8 MSTORE PUSH1 0x7 DUP6 MSTORE PUSH1 0x40 DUP8 KECCAK256 SWAP2 PUSH1 0x6 DUP4 ADD DUP1 SLOAD PUSH1 0xFF DUP2 AND PUSH1 0x5 DUP2 LT ISZERO PUSH2 0x19CA JUMPI DUP1 ISZERO SWAP1 DUP2 ISZERO PUSH2 0x19BF JUMPI JUMPDEST POP ISZERO PUSH2 0x198A JUMPI PUSH1 0x1 PUSH1 0x1 PUSH1 0xA0 SHL SUB DUP4 DUP2 AND SWAP8 SWAP1 SWAP5 SWAP1 DUP9 ISZERO PUSH2 0x1955 JUMPI PUSH1 0x40 MLOAD DUP11 DUP2 ADD SWAP2 DUP10 DUP4 MSTORE PUSH1 0x1 PUSH1 0x1 PUSH1 0x60 SHL SUB NOT DUP8 PUSH1 0x60 SHL AND PUSH1 0x40 DUP4 ADD MSTORE PUSH1 0x34 DUP3 MSTORE PUSH1 0x60 DUP3 ADD SWAP1 DUP3 DUP3 LT SWAP1 DUP3 GT OR PUSH2 0x1942 JUMPI PUSH1 0x40 MSTORE MLOAD SWAP1 KECCAK256 PUSH32 0x19457468657265756D205369676E6564204D6573736167653A0A333200000000 DUP13 MSTORE PUSH1 0x1C MSTORE PUSH1 0x3C DUP12 KECCAK256 PUSH2 0x1662 SWAP2 PUSH2 0x1659 SWAP2 PUSH2 0x20F2 JUMP JUMPDEST SWAP1 SWAP3 SWAP2 SWAP3 PUSH2 0x21BE JUMP JUMPDEST DUP5 DUP1 PUSH1 0x3 SLOAD AND SWAP2 AND SUB PUSH2 0x18FE JUMPI PUSH1 0x1 PUSH1 0x1 PUSH1 0xA8 SHL SUB NOT AND PUSH1 0x8 SWAP3 SWAP1 SWAP3 SHL PUSH2 0x100 PUSH1 0x1 PUSH1 0xA8 SHL SUB AND SWAP2 SWAP1 SWAP2 OR PUSH1 0x2 OR SWAP1 SSTORE TIMESTAMP PUSH1 0x8 DUP4 ADD SSTORE PUSH1 0x1 DUP1 DUP4 ADD SLOAD SWAP1 SWAP7 DUP9 DUP1 PUSH1 0xFF DUP5 AND PUSH1 0x2 DUP2 LT ISZERO PUSH2 0x18EB JUMPI DUP1 DUP12 SUB PUSH2 0x187D JUMPI POP POP POP PUSH1 0x4 DUP5 ADD SLOAD DUP1 DUP10 SHL SWAP1 DUP1 DUP3 DIV PUSH1 0x2 EQ SWAP1 ISZERO OR ISZERO PUSH2 0x186A JUMPI SWAP2 PUSH1 0x8 SHR DUP4 AND DUP7 DUP2 SUB PUSH2 0x1865 JUMPI POP DUP3 PUSH1 0x2 DUP6 ADD SLOAD AND JUMPDEST PUSH1 0x6 SLOAD DUP1 DUP5 MUL SWAP1 DUP5 DUP3 DIV EQ DUP5 ISZERO OR ISZERO PUSH2 0x1852 JUMPI PUSH2 0x2710 SWAP1 DIV DUP1 DUP5 SUB SWAP4 DUP5 GT PUSH2 0x1852 JUMPI SWAP1 DUP2 DUP12 SWAP3 PUSH2 0x1800 JUMPI JUMPDEST POP PUSH1 0x2 SLOAD DUP6 AND SWAP1 DUP1 DUP7 AND ISZERO PUSH2 0x17F8 JUMPI SWAP4 JUMPDEST PUSH1 0x3 DUP8 ADD SWAP5 DUP7 DUP7 SLOAD AND DUP4 EXTCODESIZE ISZERO PUSH2 0x5B6 JUMPI DUP8 SWAP4 PUSH1 0xA4 SWAP4 DUP7 SWAP3 DUP14 PUSH1 0x40 MLOAD SWAP10 DUP11 SWAP9 DUP10 SWAP8 PUSH3 0x97D055 PUSH1 0xE5 SHL DUP10 MSTORE AND PUSH1 0x4 DUP9 ADD MSTORE DUP7 ADD MSTORE PUSH1 0x44 DUP6 ADD MSTORE PUSH1 0x64 DUP5 ADD MSTORE DUP11 PUSH1 0x84 DUP5 ADD MSTORE GAS CALL DUP1 ISZERO PUSH2 0x17ED JUMPI PUSH2 0x17B3 JUMPI JUMPDEST POP SLOAD PUSH1 0x4 DUP4 ADD SLOAD PUSH1 0x5 SWAP1 SWAP4 ADD SLOAD PUSH1 0x40 DUP1 MLOAD SWAP5 DUP6 MSTORE SWAP7 DUP5 ADD MSTORE AND SWAP4 PUSH32 0x247B762D340895E9BA5C4E57A8F9B65EB56E04F1786BBE81FDCD64432CF1E5D SWAP2 LOG4 DUP2 SSTORE DUP1 RETURN JUMPDEST SWAP2 PUSH32 0x247B762D340895E9BA5C4E57A8F9B65EB56E04F1786BBE81FDCD64432CF1E5D SWAP4 SWAP2 SWAP9 PUSH2 0x17E3 PUSH1 0x40 SWAP5 PUSH2 0x1C1E JUMP JUMPDEST SWAP9 SWAP2 SWAP4 POP SWAP2 PUSH2 0x1771 JUMP JUMPDEST PUSH1 0x40 MLOAD RETURNDATASIZE DUP12 DUP3 RETURNDATACOPY RETURNDATASIZE SWAP1 REVERT JUMPDEST POP ADDRESS SWAP4 PUSH2 0x1722 JUMP JUMPDEST PUSH32 0xD0A602BB26E23A82D1071B569DDA4305120744B857E3D08EB1779D5D3478C541 DUP11 DUP8 PUSH1 0x3 DUP11 ADD DUP2 DUP2 SLOAD AND DUP8 MSTORE PUSH1 0xC DUP4 MSTORE PUSH1 0x40 DUP8 KECCAK256 PUSH2 0x1840 DUP7 DUP3 SLOAD PUSH2 0x20E5 JUMP JUMPDEST SWAP1 SSTORE SLOAD AND SWAP3 PUSH1 0x40 MLOAD SWAP1 DUP2 MSTORE LOG2 CODESIZE PUSH2 0x1711 JUMP JUMPDEST PUSH4 0x4E487B71 PUSH1 0xE0 SHL DUP12 MSTORE PUSH1 0x11 PUSH1 0x4 MSTORE DUP3 DUP12 REVERT JUMPDEST PUSH2 0x16E6 JUMP JUMPDEST POP PUSH4 0x4E487B71 PUSH1 0xE0 SHL DUP10 MSTORE PUSH1 0x11 PUSH1 0x4 MSTORE DUP9 REVERT JUMPDEST SWAP1 SWAP2 SWAP4 POP PUSH2 0x16E6 JUMPI DUP6 DUP11 MSTORE PUSH1 0x8 DUP9 MSTORE PUSH1 0x40 DUP11 KECCAK256 DUP1 SLOAD SWAP1 DUP12 JUMPDEST DUP3 DUP2 LT PUSH2 0x18A4 JUMPI POP POP POP PUSH2 0x16E6 JUMP JUMPDEST DUP10 DUP8 PUSH2 0x18B0 DUP4 DUP6 PUSH2 0x1B8C JUMP JUMPDEST POP SLOAD AND SUB PUSH2 0x18C7 JUMPI JUMPDEST PUSH2 0x18C2 SWAP1 PUSH2 0x1F52 JUMP JUMPDEST PUSH2 0x1895 JUMP JUMPDEST SWAP5 PUSH2 0x18E3 PUSH2 0x18C2 SWAP2 DUP14 PUSH2 0x18DA DUP10 DUP7 PUSH2 0x1B8C JUMP JUMPDEST POP ADD SLOAD SWAP1 PUSH2 0x20E5 JUMP JUMPDEST SWAP6 SWAP1 POP PUSH2 0x18B9 JUMP JUMPDEST PUSH4 0x4E487B71 PUSH1 0xE0 SHL DUP13 MSTORE PUSH1 0x21 PUSH1 0x4 MSTORE DUP4 DUP13 REVERT JUMPDEST PUSH1 0x40 MLOAD PUSH3 0x461BCD PUSH1 0xE5 SHL DUP2 MSTORE PUSH1 0x4 DUP2 ADD DUP10 SWAP1 MSTORE PUSH1 0x17 DUP2 DUP12 ADD MSTORE PUSH32 0x496E76616C69642061646D696E207369676E6174757265000000000000000000 PUSH1 0x44 DUP3 ADD MSTORE PUSH1 0x64 SWAP1 REVERT JUMPDEST PUSH4 0x4E487B71 PUSH1 0xE0 SHL DUP15 MSTORE PUSH1 0x41 PUSH1 0x4 MSTORE DUP13 DUP15 REVERT JUMPDEST PUSH1 0x40 MLOAD PUSH3 0x461BCD PUSH1 0xE5 SHL DUP2 MSTORE PUSH1 0x4 DUP2 ADD DUP12 SWAP1 MSTORE PUSH1 0xE DUP2 DUP14 ADD MSTORE PUSH14 0x24B73B30B634B2103BB4B73732B9 PUSH1 0x91 SHL PUSH1 0x44 DUP3 ADD MSTORE PUSH1 0x64 SWAP1 REVERT JUMPDEST PUSH1 0x40 MLOAD PUSH3 0x461BCD PUSH1 0xE5 SHL DUP2 MSTORE PUSH1 0x4 DUP2 ADD DUP10 SWAP1 MSTORE PUSH1 0xE DUP2 DUP12 ADD MSTORE PUSH14 0x496E76616C696420737461747573 PUSH1 0x90 SHL PUSH1 0x44 DUP3 ADD MSTORE PUSH1 0x64 SWAP1 REVERT JUMPDEST PUSH1 0x1 SWAP2 POP EQ CODESIZE PUSH2 0x15D0 JUMP JUMPDEST PUSH4 0x4E487B71 PUSH1 0xE0 SHL DUP12 MSTORE PUSH1 0x21 PUSH1 0x4 MSTORE DUP10 DUP12 REVERT JUMPDEST POP CALLVALUE PUSH2 0x182 JUMPI PUSH1 0x20 PUSH32 0xCED2684241C29578DF8F7FBAB74348D0053114FA157B900B2F1F4A1D4A2B3395 PUSH2 0x1A0F CALLDATASIZE PUSH2 0x1BEF JUMP JUMPDEST SWAP3 SWAP1 PUSH2 0x1A19 PUSH2 0x1E0B JUMP JUMPDEST PUSH1 0x1 PUSH1 0x1 PUSH1 0xA0 SHL SUB AND SWAP3 PUSH2 0x1A2E DUP5 ISZERO ISZERO PUSH2 0x222D JUMP JUMPDEST DUP4 DUP6 MSTORE PUSH1 0xB DUP3 MSTORE PUSH2 0x796 DUP2 PUSH1 0x40 DUP8 KECCAK256 SWAP1 PUSH1 0xFF DUP1 NOT DUP4 SLOAD AND SWAP2 ISZERO ISZERO AND OR SWAP1 SSTORE JUMP JUMPDEST POP CALLVALUE PUSH2 0x182 JUMPI PUSH1 0x20 CALLDATASIZE PUSH1 0x3 NOT ADD SLT PUSH2 0x182 JUMPI PUSH2 0x1A68 PUSH2 0x1BBE JUMP JUMPDEST PUSH2 0x1A70 PUSH2 0x1E0B JUMP JUMPDEST PUSH1 0x1 PUSH1 0x1 PUSH1 0xA0 SHL SUB AND DUP1 ISZERO PUSH2 0x1AB8 JUMPI PUSH1 0x4 DUP1 SLOAD PUSH1 0x1 PUSH1 0x1 PUSH1 0xA0 SHL SUB NOT AND DUP3 OR SWAP1 SSTORE PUSH32 0xBA887708E7D4436DD36B62187BDCED03E0B9ABE66CAF392A66DD84386641B209 DUP3 DUP1 LOG2 DUP1 RETURN JUMPDEST PUSH1 0x40 MLOAD PUSH3 0x461BCD PUSH1 0xE5 SHL DUP2 MSTORE PUSH1 0x20 PUSH1 0x4 DUP3 ADD MSTORE PUSH1 0x11 PUSH1 0x24 DUP3 ADD MSTORE PUSH17 0x125B9D985B1A59081C9958DA5C1A595B9D PUSH1 0x7A SHL PUSH1 0x44 DUP3 ADD MSTORE PUSH1 0x64 SWAP1 REVERT JUMPDEST POP CALLVALUE PUSH2 0x182 JUMPI PUSH1 0x40 CALLDATASIZE PUSH1 0x3 NOT ADD SLT PUSH2 0x182 JUMPI PUSH1 0x24 CALLDATALOAD SWAP1 PUSH1 0x4 CALLDATALOAD DUP2 MSTORE PUSH1 0x8 PUSH1 0x20 MSTORE PUSH1 0x40 DUP2 KECCAK256 SWAP1 DUP2 SLOAD DUP4 LT ISZERO PUSH2 0x182 JUMPI PUSH1 0x80 PUSH2 0x1B2B DUP5 DUP5 PUSH2 0x1B8C JUMP JUMPDEST POP DUP1 SLOAD SWAP1 PUSH1 0xFF PUSH1 0x2 PUSH1 0x1 DUP4 ADD SLOAD SWAP3 ADD SLOAD AND SWAP1 PUSH1 0xFF PUSH1 0x40 MLOAD SWAP4 PUSH1 0x1 DUP1 PUSH1 0xA0 SHL SUB DUP2 AND DUP6 MSTORE PUSH1 0xA0 SHR AND ISZERO ISZERO PUSH1 0x20 DUP5 ADD MSTORE PUSH1 0x40 DUP4 ADD MSTORE ISZERO ISZERO PUSH1 0x60 DUP3 ADD MSTORE RETURN JUMPDEST SWAP1 POP CALLVALUE PUSH2 0x44C JUMPI DUP2 PUSH1 0x3 NOT CALLDATASIZE ADD SLT PUSH2 0x44C JUMPI PUSH1 0x2 SLOAD PUSH1 0x1 PUSH1 0x1 PUSH1 0xA0 SHL SUB AND DUP2 MSTORE PUSH1 0x20 SWAP1 RETURN JUMPDEST DUP1 SLOAD DUP3 LT ISZERO PUSH2 0x1BA8 JUMPI PUSH1 0x0 MSTORE PUSH1 0x3 PUSH1 0x20 PUSH1 0x0 KECCAK256 SWAP2 MUL ADD SWAP1 PUSH1 0x0 SWAP1 JUMP JUMPDEST PUSH4 0x4E487B71 PUSH1 0xE0 SHL PUSH1 0x0 MSTORE PUSH1 0x32 PUSH1 0x4 MSTORE PUSH1 0x24 PUSH1 0x0 REVERT JUMPDEST PUSH1 0x4 CALLDATALOAD SWAP1 PUSH1 0x1 PUSH1 0x1 PUSH1 0xA0 SHL SUB DUP3 AND DUP3 SUB PUSH2 0x1BD4 JUMPI JUMP JUMPDEST PUSH1 0x0 DUP1 REVERT JUMPDEST PUSH1 0x24 CALLDATALOAD SWAP1 PUSH1 0x1 PUSH1 0x1 PUSH1 0xA0 SHL SUB DUP3 AND DUP3 SUB PUSH2 0x1BD4 JUMPI JUMP JUMPDEST PUSH1 0x40 SWAP1 PUSH1 0x3 NOT ADD SLT PUSH2 0x1BD4 JUMPI PUSH1 0x4 CALLDATALOAD PUSH1 0x1 PUSH1 0x1 PUSH1 0xA0 SHL SUB DUP2 AND DUP2 SUB PUSH2 0x1BD4 JUMPI SWAP1 PUSH1 0x24 CALLDATALOAD DUP1 ISZERO ISZERO DUP2 SUB PUSH2 0x1BD4 JUMPI SWAP1 JUMP JUMPDEST PUSH8 0xFFFFFFFFFFFFFFFF DUP2 GT PUSH2 0x3FB JUMPI PUSH1 0x40 MSTORE JUMP JUMPDEST PUSH2 0x180 DUP2 ADD SWAP1 DUP2 LT PUSH8 0xFFFFFFFFFFFFFFFF DUP3 GT OR PUSH2 0x3FB JUMPI PUSH1 0x40 MSTORE JUMP JUMPDEST SWAP1 PUSH1 0x1F DUP1 NOT SWAP2 ADD AND DUP2 ADD SWAP1 DUP2 LT PUSH8 0xFFFFFFFFFFFFFFFF DUP3 GT OR PUSH2 0x3FB JUMPI PUSH1 0x40 MSTORE JUMP JUMPDEST PUSH8 0xFFFFFFFFFFFFFFFF DUP2 GT PUSH2 0x3FB JUMPI PUSH1 0x1F ADD PUSH1 0x1F NOT AND PUSH1 0x20 ADD SWAP1 JUMP JUMPDEST SWAP1 PUSH1 0x2 DUP3 LT ISZERO PUSH2 0x1C9A JUMPI MSTORE JUMP JUMPDEST PUSH4 0x4E487B71 PUSH1 0xE0 SHL PUSH1 0x0 MSTORE PUSH1 0x21 PUSH1 0x4 MSTORE PUSH1 0x24 PUSH1 0x0 REVERT JUMPDEST SWAP1 PUSH1 0x5 DUP3 LT ISZERO PUSH2 0x1C9A JUMPI MSTORE JUMP JUMPDEST SWAP2 SWAP1 DUP3 MLOAD SWAP3 DUP4 DUP3 MSTORE PUSH1 0x0 JUMPDEST DUP5 DUP2 LT PUSH2 0x1CE9 JUMPI POP POP DUP3 PUSH1 0x0 PUSH1 0x20 DUP1 SWAP5 SWAP6 DUP5 ADD ADD MSTORE PUSH1 0x1F DUP1 NOT SWAP2 ADD AND ADD ADD SWAP1 JUMP JUMPDEST PUSH1 0x20 DUP2 DUP4 ADD DUP2 ADD MLOAD DUP5 DUP4 ADD DUP3 ADD MSTORE ADD PUSH2 0x1CC8 JUMP JUMPDEST SWAP2 DUP2 PUSH1 0x1F DUP5 ADD SLT ISZERO PUSH2 0x1BD4 JUMPI DUP3 CALLDATALOAD SWAP2 PUSH8 0xFFFFFFFFFFFFFFFF DUP4 GT PUSH2 0x1BD4 JUMPI PUSH1 0x20 DUP4 DUP2 DUP7 ADD SWAP6 ADD ADD GT PUSH2 0x1BD4 JUMPI JUMP JUMPDEST SWAP1 PUSH1 0x1 DUP3 DUP2 SHR SWAP3 AND DUP1 ISZERO PUSH2 0x1D5B JUMPI JUMPDEST PUSH1 0x20 DUP4 LT EQ PUSH2 0x1D45 JUMPI JUMP JUMPDEST PUSH4 0x4E487B71 PUSH1 0xE0 SHL PUSH1 0x0 MSTORE PUSH1 0x22 PUSH1 0x4 MSTORE PUSH1 0x24 PUSH1 0x0 REVERT JUMPDEST SWAP2 PUSH1 0x7F AND SWAP2 PUSH2 0x1D3A JUMP JUMPDEST SWAP1 PUSH1 0x40 MLOAD SWAP2 DUP3 PUSH1 0x0 DUP3 SLOAD SWAP3 PUSH2 0x1D79 DUP5 PUSH2 0x1D2B JUMP JUMPDEST SWAP1 DUP2 DUP5 MSTORE PUSH1 0x1 SWAP5 DUP6 DUP2 AND SWAP1 DUP2 PUSH1 0x0 EQ PUSH2 0x1DE8 JUMPI POP PUSH1 0x1 EQ PUSH2 0x1DA5 JUMPI JUMPDEST POP POP PUSH2 0x1DA3 SWAP3 POP SUB DUP4 PUSH2 0x1C4F JUMP JUMPDEST JUMP JUMPDEST SWAP1 SWAP4 SWAP2 POP PUSH1 0x0 MSTORE PUSH1 0x20 SWAP1 DUP2 PUSH1 0x0 KECCAK256 SWAP4 PUSH1 0x0 SWAP2 JUMPDEST DUP2 DUP4 LT PUSH2 0x1DD0 JUMPI POP POP PUSH2 0x1DA3 SWAP4 POP DUP3 ADD ADD CODESIZE DUP1 PUSH2 0x1D95 JUMP JUMPDEST DUP6 SLOAD DUP9 DUP5 ADD DUP6 ADD MSTORE SWAP5 DUP6 ADD SWAP5 DUP8 SWAP5 POP SWAP2 DUP4 ADD SWAP2 PUSH2 0x1DB8 JUMP JUMPDEST SWAP2 POP POP PUSH2 0x1DA3 SWAP5 POP PUSH1 0x20 SWAP3 POP PUSH1 0xFF NOT AND DUP3 DUP5 ADD MSTORE ISZERO ISZERO PUSH1 0x5 SHL DUP3 ADD ADD CODESIZE DUP1 PUSH2 0x1D95 JUMP JUMPDEST PUSH1 0x1 SLOAD PUSH1 0x1 PUSH1 0x1 PUSH1 0xA0 SHL SUB AND CALLER SUB PUSH2 0x1E1F JUMPI JUMP JUMPDEST PUSH1 0x40 MLOAD PUSH4 0x118CDAA7 PUSH1 0xE0 SHL DUP2 MSTORE CALLER PUSH1 0x4 DUP3 ADD MSTORE PUSH1 0x24 SWAP1 REVERT JUMPDEST ISZERO PUSH2 0x1E3E JUMPI JUMP JUMPDEST PUSH1 0x40 MLOAD PUSH3 0x461BCD PUSH1 0xE5 SHL DUP2 MSTORE PUSH1 0x20 PUSH1 0x4 DUP3 ADD MSTORE PUSH1 0x14 PUSH1 0x24 DUP3 ADD MSTORE PUSH20 0x151BDAD95B881A5CC8189B1858DADB1A5CDD1959 PUSH1 0x62 SHL PUSH1 0x44 DUP3 ADD MSTORE PUSH1 0x64 SWAP1 REVERT JUMPDEST ISZERO PUSH2 0x1E81 JUMPI JUMP JUMPDEST PUSH1 0x40 MLOAD PUSH3 0x461BCD PUSH1 0xE5 SHL DUP2 MSTORE PUSH1 0x20 PUSH1 0x4 DUP3 ADD MSTORE PUSH1 0x11 PUSH1 0x24 DUP3 ADD MSTORE PUSH17 0x5374616B65206D757374206265203E203 PUSH1 0x7C SHL PUSH1 0x44 DUP3 ADD MSTORE PUSH1 0x64 SWAP1 REVERT JUMPDEST ISZERO PUSH2 0x1EC1 JUMPI JUMP JUMPDEST PUSH1 0x40 MLOAD PUSH3 0x461BCD PUSH1 0xE5 SHL DUP2 MSTORE PUSH1 0x20 PUSH1 0x4 DUP3 ADD MSTORE PUSH1 0x19 PUSH1 0x24 DUP3 ADD MSTORE PUSH32 0x506F696E747320726577617264206D757374206265203E203000000000000000 PUSH1 0x44 DUP3 ADD MSTORE PUSH1 0x64 SWAP1 REVERT JUMPDEST ISZERO PUSH2 0x1F0D JUMPI JUMP JUMPDEST PUSH1 0x40 MLOAD PUSH3 0x461BCD PUSH1 0xE5 SHL DUP2 MSTORE PUSH1 0x20 PUSH1 0x4 DUP3 ADD MSTORE PUSH1 0x1F PUSH1 0x24 DUP3 ADD MSTORE PUSH32 0x506F696E7473207265776172642063616E6E6F74206578636565642035303000 PUSH1 0x44 DUP3 ADD MSTORE PUSH1 0x64 SWAP1 REVERT JUMPDEST PUSH1 0x0 NOT DUP2 EQ PUSH2 0x1F61 JUMPI PUSH1 0x1 ADD SWAP1 JUMP JUMPDEST PUSH4 0x4E487B71 PUSH1 0xE0 SHL PUSH1 0x0 MSTORE PUSH1 0x11 PUSH1 0x4 MSTORE PUSH1 0x24 PUSH1 0x0 REVERT JUMPDEST PUSH1 0x2 PUSH1 0x0 SLOAD EQ PUSH2 0x1F88 JUMPI PUSH1 0x2 PUSH1 0x0 SSTORE JUMP JUMPDEST PUSH1 0x40 MLOAD PUSH4 0x3EE5AEB5 PUSH1 0xE0 SHL DUP2 MSTORE PUSH1 0x4 SWAP1 REVERT JUMPDEST ISZERO PUSH2 0x1FA1 JUMPI JUMP JUMPDEST PUSH1 0x40 MLOAD PUSH3 0x461BCD PUSH1 0xE5 SHL DUP2 MSTORE PUSH1 0x20 PUSH1 0x4 DUP3 ADD MSTORE PUSH1 0x19 PUSH1 0x24 DUP3 ADD MSTORE PUSH32 0x446F206E6F742073656E642045544820666F7220455243323000000000000000 PUSH1 0x44 DUP3 ADD MSTORE PUSH1 0x64 SWAP1 REVERT JUMPDEST ISZERO PUSH2 0x1FED JUMPI JUMP JUMPDEST PUSH1 0x40 MLOAD PUSH3 0x461BCD PUSH1 0xE5 SHL DUP2 MSTORE PUSH1 0x20 PUSH1 0x4 DUP3 ADD MSTORE PUSH1 0x13 PUSH1 0x24 DUP3 ADD MSTORE PUSH19 0x8AA89040C2DADEEADCE840DAD2E6DAC2E8C6D PUSH1 0x6B SHL PUSH1 0x44 DUP3 ADD MSTORE PUSH1 0x64 SWAP1 REVERT JUMPDEST PUSH1 0x40 MLOAD PUSH4 0x23B872DD PUSH1 0xE0 SHL PUSH1 0x20 DUP3 ADD MSTORE PUSH1 0x1 PUSH1 0x1 PUSH1 0xA0 SHL SUB SWAP3 DUP4 AND PUSH1 0x24 DUP3 ADD MSTORE SWAP3 SWAP1 SWAP2 AND PUSH1 0x44 DUP4 ADD MSTORE PUSH1 0x64 DUP1 DUP4 ADD SWAP4 SWAP1 SWAP4 MSTORE SWAP2 DUP2 MSTORE PUSH1 0xA0 DUP2 ADD SWAP2 DUP2 DUP4 LT PUSH8 0xFFFFFFFFFFFFFFFF DUP5 GT OR PUSH2 0x3FB JUMPI PUSH2 0x1DA3 SWAP3 PUSH1 0x40 MSTORE JUMPDEST SWAP1 PUSH1 0x0 PUSH1 0x20 SWAP2 DUP3 DUP2 MLOAD SWAP2 ADD DUP3 DUP6 GAS CALL ISZERO PUSH2 0x20D9 JUMPI PUSH1 0x0 MLOAD RETURNDATASIZE PUSH2 0x20D0 JUMPI POP PUSH1 0x1 PUSH1 0x1 PUSH1 0xA0 SHL SUB DUP2 AND EXTCODESIZE ISZERO JUMPDEST PUSH2 0x20AE JUMPI POP JUMP JUMPDEST PUSH1 0x40 MLOAD PUSH4 0x5274AFE7 PUSH1 0xE0 SHL DUP2 MSTORE PUSH1 0x1 PUSH1 0x1 PUSH1 0xA0 SHL SUB SWAP1 SWAP2 AND PUSH1 0x4 DUP3 ADD MSTORE PUSH1 0x24 SWAP1 REVERT JUMPDEST PUSH1 0x1 EQ ISZERO PUSH2 0x20A7 JUMP JUMPDEST PUSH1 0x40 MLOAD RETURNDATASIZE PUSH1 0x0 DUP3 RETURNDATACOPY RETURNDATASIZE SWAP1 REVERT JUMPDEST SWAP2 SWAP1 DUP3 ADD DUP1 SWAP3 GT PUSH2 0x1F61 JUMPI JUMP JUMPDEST DUP2 MLOAD SWAP2 SWAP1 PUSH1 0x41 DUP4 SUB PUSH2 0x2123 JUMPI PUSH2 0x211C SWAP3 POP PUSH1 0x20 DUP3 ADD MLOAD SWAP1 PUSH1 0x60 PUSH1 0x40 DUP5 ADD MLOAD SWAP4 ADD MLOAD PUSH1 0x0 BYTE SWAP1 PUSH2 0x212E JUMP JUMPDEST SWAP2 SWAP3 SWAP1 SWAP2 SWAP1 JUMP JUMPDEST POP POP PUSH1 0x0 SWAP2 PUSH1 0x2 SWAP2 SWAP1 JUMP JUMPDEST SWAP2 SWAP1 PUSH32 0x7FFFFFFFFFFFFFFFFFFFFFFFFFFFFFFF5D576E7357A4501DDFE92F46681B20A0 DUP5 GT PUSH2 0x21B2 JUMPI SWAP3 PUSH1 0x20 SWAP3 SWAP2 PUSH1 0xFF PUSH1 0x80 SWAP6 PUSH1 0x40 MLOAD SWAP5 DUP6 MSTORE AND DUP5 DUP5 ADD MSTORE PUSH1 0x40 DUP4 ADD MSTORE PUSH1 0x60 DUP3 ADD MSTORE PUSH1 0x0 SWAP3 DUP4 SWAP2 DUP3 DUP1 MSTORE PUSH1 0x1 GAS STATICCALL ISZERO PUSH2 0x21A6 JUMPI DUP1 MLOAD PUSH1 0x1 PUSH1 0x1 PUSH1 0xA0 SHL SUB DUP2 AND ISZERO PUSH2 0x219D JUMPI SWAP2 DUP2 SWAP1 JUMP JUMPDEST POP DUP1 SWAP2 PUSH1 0x1 SWAP2 SWAP1 JUMP JUMPDEST PUSH1 0x40 MLOAD SWAP1 RETURNDATASIZE SWAP1 DUP3 RETURNDATACOPY RETURNDATASIZE SWAP1 REVERT JUMPDEST POP POP POP PUSH1 0x0 SWAP2 PUSH1 0x3 SWAP2 SWAP1 JUMP JUMPDEST PUSH1 0x4 DUP2 LT ISZERO PUSH2 0x1C9A JUMPI DUP1 PUSH2 0x21D0 JUMPI POP POP JUMP JUMPDEST PUSH1 0x1 DUP2 SUB PUSH2 0x21EA JUMPI PUSH1 0x40 MLOAD PUSH4 0xF645EEDF PUSH1 0xE0 SHL DUP2 MSTORE PUSH1 0x4 SWAP1 REVERT JUMPDEST PUSH1 0x2 DUP2 SUB PUSH2 0x220B JUMPI PUSH1 0x40 MLOAD PUSH4 0xFCE698F7 PUSH1 0xE0 SHL DUP2 MSTORE PUSH1 0x4 DUP2 ADD DUP4 SWAP1 MSTORE PUSH1 0x24 SWAP1 REVERT JUMPDEST PUSH1 0x3 EQ PUSH2 0x2215 JUMPI POP JUMP JUMPDEST PUSH1 0x24 SWAP1 PUSH1 0x40 MLOAD SWAP1 PUSH4 0x35E2F383 PUSH1 0xE2 SHL DUP3 MSTORE PUSH1 0x4 DUP3 ADD MSTORE REVERT JUMPDEST ISZERO PUSH2 0x2234 JUMPI JUMP JUMPDEST PUSH1 0x40 MLOAD PUSH3 0x461BCD PUSH1 0xE5 SHL DUP2 MSTORE PUSH1 0x20 PUSH1 0x4 DUP3 ADD MSTORE PUSH1 0xD PUSH1 0x24 DUP3 ADD MSTORE PUSH13 0x24B73B30B634B2103A37B5B2B7 PUSH1 0x99 SHL PUSH1 0x44 DUP3 ADD MSTORE PUSH1 0x64 SWAP1 REVERT INVALID LOG2 PUSH5 0x6970667358 0x22 SLT KECCAK256 0x2E 0x28 SLOAD 0xBB 0xD3 0x4C 0x5C ADD CREATE2 DUP9 0x22 0x4C 0x25 CODESIZE TIMESTAMP 0xDD 0xF9 0xC PUSH32 0x3CA7EC082C2F5FAF7AEB94FBD964736F6C634300081400330000000000000000 "},"methodIdentifiers":{"acceptP2PChallenge(uint256)":"d35202e8","admin()":"f851a440","blacklistToken(address,bool)":"190e4c55","blacklistedTokens(address)":"5c8b5f44","challenges(uint256)":"8f1d3776","claimStake(uint256)":"44c7d6ef","createGroupChallenge(address,uint256,uint256,string)":"c25d8b7b","createP2PChallenge(address,address,uint256,uint256,string)":"79a11522","getChallenge(uint256)":"1bdd4b74","getPlatformFeeBalance(address)":"68a2b7de","groupChallengeParticipants(uint256,uint256)":"0d8d2d08","isTokenBlacklisted(address)":"ce9be9ba","isTokenVerified(address)":"ec867b27","nextChallengeId()":"fc67aa50","owner()":"8da5cb5b","p2pChallengeAmounts(uint256)":"69249fba","platformFeeBalance(address)":"86ff06e7","platformFeePercentage()":"cdd78cfc","platformFeeRecipient()":"eb13554f","renounceOwnership()":"715018a6","resolveChallenge(uint256,address,bytes)":"199a714e","setAdmin(address)":"704b6c02","setPlatformFeePercentage(uint256)":"8333903e","setPlatformFeeRecipient(address)":"1871e243","stakeEscrow()":"017b975b","transferOwnership(address)":"f2fde38b","verifiedTokens(address)":"1baaaffe","verifyToken(address,bool)":"d2d66482","withdrawPlatformFees(address)":"ec3889b5"}}}}}