{"src/Counter.sol":{"Counter":{"abi":[{"inputs":[],"name":"increment","outputs":[],"stateMutability":"nonpayable","type":"function"},{"inputs":[],"name":"number","outputs":[{"internalType":"uint256","name":"","type":"uint256"}],"stateMutability":"view","type":"function"},{"inputs":[{"internalType":"uint256","name":"newNumber","type":"uint256"}],"name":"setNumber","outputs":[],"stateMutability":"nonpayable","type":"function"}],"evm":{"bytecode":{"linkReferences":{},"object":"608080604052346100155760df908161001b8239f35b600080fdfe6080806040526004361015601257600080fd5b600090813560e01c9081633fb5c1cb1460915781638381f58a146075575063d09de08a14603e57600080fd5b346072578060031936011260725780546000198114605e57600101815580f35b634e487b7160e01b82526011600452602482fd5b80fd5b905034608d5781600319360112608d57602091548152f35b5080fd5b82346072576020366003190112607257600435815580f3fea26469706673582212204332fbae489105f9342bf7d421394d09a20f0a875c8a233b923b8809de3d70c164736f6c63430008140033","opcodes":"PUSH1 0x80 DUP1 PUSH1 0x40 MSTORE CALLVALUE PUSH2 0x15 JUMPI PUSH1 0xDF SWAP1 DUP2 PUSH2 0x1B DUP3 CODECOPY RETURN JUMPDEST PUSH1 0x0 DUP1 REVERT INVALID PUSH1 0x80 DUP1 PUSH1 0x40 MSTORE PUSH1 0x4 CALLDATASIZE LT ISZERO PUSH1 0x12 JUMPI PUSH1 0x0 DUP1 REVERT JUMPDEST PUSH1 0x0 SWAP1 DUP2 CALLDATALOAD PUSH1 0xE0 SHR SWAP1 DUP2 PUSH4 0x3FB5C1CB EQ PUSH1 0x91 JUMPI DUP2 PUSH4 0x8381F58A EQ PUSH1 0x75 JUMPI POP PUSH4 0xD09DE08A EQ PUSH1 0x3E JUMPI PUSH1 0x0 DUP1 REVERT JUMPDEST CALLVALUE PUSH1 0x72 JUMPI DUP1 PUSH1 0x3 NOT CALLDATASIZE ADD SLT PUSH1 0x72 JUMPI DUP1 SLOAD PUSH1 0x0 NOT DUP2 EQ PUSH1 0x5E JUMPI PUSH1 0x1 ADD DUP2 SSTORE DUP1 RETURN JUMPDEST PUSH4 0x4E487B71 PUSH1 0xE0 SHL DUP3 MSTORE PUSH1 0x11 PUSH1 0x4 MSTORE PUSH1 0x24 DUP3 REVERT JUMPDEST DUP1 REVERT JUMPDEST SWAP1 POP CALLVALUE PUSH1 0x8D JUMPI DUP2 PUSH1 0x3 NOT CALLDATASIZE ADD SLT PUSH1 0x8D JUMPI PUSH1 0x20 SWAP2 SLOAD DUP2 MSTORE RETURN JUMPDEST POP DUP1 REVERT JUMPDEST DUP3 CALLVALUE PUSH1 0x72 JUMPI PUSH1 0x20 CALLDATASIZE PUSH1 0x3 NOT ADD SLT PUSH1 0x72 JUMPI PUSH1 0x4 CALLDATALOAD DUP2 SSTORE DUP1 RETURN INVALID LOG2 PUSH5 0x6970667358 0x22 SLT KECCAK256 NUMBER ORIGIN 0xFB 0xAE BASEFEE SWAP2 SDIV 0xF9 CALLVALUE 0x2B 0xF7 0xD4 0x21 CODECOPY 0x4D MULMOD LOG2 0xF EXP DUP8 0x5C DUP11 0x23 EXTCODESIZE SWAP3 EXTCODESIZE DUP9 MULMOD 0xDE RETURNDATASIZE PUSH17 0xC164736F6C634300081400330000000000 "},"methodIdentifiers":{"increment()":"d09de08a","number()":"8381f58a","setNumber(uint256)":"3fb5c1cb"}}}}}