{
  "_format": "hh-sol-artifact-1",
  "contractName": "ChallengeEscrow",
  "sourceName": "src/ChallengeEscrow.sol",
  "abi": [
    {
      "inputs": [
        {
          "internalType": "address",
          "name": "_challengeFactory",
          "type": "address"
        }
      ],
      "stateMutability": "nonpayable",
      "type": "constructor"
    },
    {
      "inputs": [
        {
          "internalType": "address",
          "name": "owner",
          "type": "address"
        }
      ],
      "name": "OwnableInvalidOwner",
      "type": "error"
    },
    {
      "inputs": [
        {
          "internalType": "address",
          "name": "account",
          "type": "address"
        }
      ],
      "name": "OwnableUnauthorizedAccount",
      "type": "error"
    },
    {
      "inputs": [],
      "name": "ReentrancyGuardReentrantCall",
      "type": "error"
    },
    {
      "inputs": [
        {
          "internalType": "address",
          "name": "token",
          "type": "address"
        }
      ],
      "name": "SafeERC20FailedOperation",
      "type": "error"
    },
    {
      "anonymous": false,
      "inputs": [
        {
          "indexed": true,
          "internalType": "address",
          "name": "newFactory",
          "type": "address"
        }
      ],
      "name": "ChallengeFactoryUpdated",
      "type": "event"
    },
    {
      "anonymous": false,
      "inputs": [
        {
          "indexed": true,
          "internalType": "address",
          "name": "previousOwner",
          "type": "address"
        },
        {
          "indexed": true,
          "internalType": "address",
          "name": "newOwner",
          "type": "address"
        }
      ],
      "name": "OwnershipTransferred",
      "type": "event"
    },
    {
      "anonymous": false,
      "inputs": [
        {
          "indexed": true,
          "internalType": "address",
          "name": "user",
          "type": "address"
        },
        {
          "indexed": true,
          "internalType": "address",
          "name": "token",
          "type": "address"
        },
        {
          "indexed": false,
          "internalType": "uint256",
          "name": "amount",
          "type": "uint256"
        },
        {
          "indexed": true,
          "internalType": "uint256",
          "name": "challengeId",
          "type": "uint256"
        }
      ],
      "name": "StakeLocked",
      "type": "event"
    },
    {
      "anonymous": false,
      "inputs": [
        {
          "indexed": true,
          "internalType": "address",
          "name": "user",
          "type": "address"
        },
        {
          "indexed": true,
          "internalType": "address",
          "name": "token",
          "type": "address"
        },
        {
          "indexed": false,
          "internalType": "uint256",
          "name": "amount",
          "type": "uint256"
        },
        {
          "indexed": true,
          "internalType": "uint256",
          "name": "challengeId",
          "type": "uint256"
        }
      ],
      "name": "StakeReleased",
      "type": "event"
    },
    {
      "anonymous": false,
      "inputs": [
        {
          "indexed": true,
          "internalType": "address",
          "name": "from",
          "type": "address"
        },
        {
          "indexed": true,
          "internalType": "address",
          "name": "to",
          "type": "address"
        },
        {
          "indexed": true,
          "internalType": "address",
          "name": "token",
          "type": "address"
        },
        {
          "indexed": false,
          "internalType": "uint256",
          "name": "amount",
          "type": "uint256"
        },
        {
          "indexed": false,
          "internalType": "uint256",
          "name": "challengeId",
          "type": "uint256"
        },
        {
          "indexed": false,
          "internalType": "string",
          "name": "reason",
          "type": "string"
        }
      ],
      "name": "StakeTransferred",
      "type": "event"
    },
    {
      "inputs": [],
      "name": "challengeFactory",
      "outputs": [
        {
          "internalType": "address",
          "name": "",
          "type": "address"
        }
      ],
      "stateMutability": "view",
      "type": "function"
    },
    {
      "inputs": [
        {
          "internalType": "uint256",
          "name": "",
          "type": "uint256"
        },
        {
          "internalType": "uint256",
          "name": "",
          "type": "uint256"
        }
      ],
      "name": "challengeParticipants",
      "outputs": [
        {
          "internalType": "address",
          "name": "",
          "type": "address"
        }
      ],
      "stateMutability": "view",
      "type": "function"
    },
    {
      "inputs": [
        {
          "internalType": "uint256",
          "name": "",
          "type": "uint256"
        },
        {
          "internalType": "uint256",
          "name": "",
          "type": "uint256"
        }
      ],
      "name": "challengeStakes",
      "outputs": [
        {
          "internalType": "address",
          "name": "token",
          "type": "address"
        },
        {
          "internalType": "uint256",
          "name": "amount",
          "type": "uint256"
        },
        {
          "internalType": "uint256",
          "name": "lockedAt",
          "type": "uint256"
        },
        {
          "internalType": "uint256",
          "name": "challengeId",
          "type": "uint256"
        },
        {
          "internalType": "bool",
          "name": "released",
          "type": "bool"
        }
      ],
      "stateMutability": "view",
      "type": "function"
    },
    {
      "inputs": [
        {
          "internalType": "uint256",
          "name": "challengeId",
          "type": "uint256"
        }
      ],
      "name": "getChallengeParticipants",
      "outputs": [
        {
          "internalType": "address[]",
          "name": "",
          "type": "address[]"
        }
      ],
      "stateMutability": "view",
      "type": "function"
    },
    {
      "inputs": [
        {
          "internalType": "uint256",
          "name": "challengeId",
          "type": "uint256"
        }
      ],
      "name": "getChallengeStakes",
      "outputs": [
        {
          "components": [
            {
              "internalType": "address",
              "name": "token",
              "type": "address"
            },
            {
              "internalType": "uint256",
              "name": "amount",
              "type": "uint256"
            },
            {
              "internalType": "uint256",
              "name": "lockedAt",
              "type": "uint256"
            },
            {
              "internalType": "uint256",
              "name": "challengeId",
              "type": "uint256"
            },
            {
              "internalType": "bool",
              "name": "released",
              "type": "bool"
            }
          ],
          "internalType": "struct ChallengeEscrow.LockedStake[]",
          "name": "",
          "type": "tuple[]"
        }
      ],
      "stateMutability": "view",
      "type": "function"
    },
    {
      "inputs": [
        {
          "internalType": "address",
          "name": "user",
          "type": "address"
        },
        {
          "internalType": "address",
          "name": "token",
          "type": "address"
        }
      ],
      "name": "getTotalLockedByToken",
      "outputs": [
        {
          "internalType": "uint256",
          "name": "",
          "type": "uint256"
        }
      ],
      "stateMutability": "view",
      "type": "function"
    },
    {
      "inputs": [
        {
          "internalType": "address",
          "name": "user",
          "type": "address"
        },
        {
          "internalType": "address",
          "name": "token",
          "type": "address"
        },
        {
          "internalType": "uint256",
          "name": "amount",
          "type": "uint256"
        },
        {
          "internalType": "uint256",
          "name": "challengeId",
          "type": "uint256"
        }
      ],
      "name": "lockStake",
      "outputs": [],
      "stateMutability": "nonpayable",
      "type": "function"
    },
    {
      "inputs": [],
      "name": "owner",
      "outputs": [
        {
          "internalType": "address",
          "name": "",
          "type": "address"
        }
      ],
      "stateMutability": "view",
      "type": "function"
    },
    {
      "inputs": [
        {
          "internalType": "uint256",
          "name": "challengeId",
          "type": "uint256"
        },
        {
          "internalType": "address[]",
          "name": "users",
          "type": "address[]"
        }
      ],
      "name": "releaseStakes",
      "outputs": [],
      "stateMutability": "nonpayable",
      "type": "function"
    },
    {
      "inputs": [],
      "name": "renounceOwnership",
      "outputs": [],
      "stateMutability": "nonpayable",
      "type": "function"
    },
    {
      "inputs": [
        {
          "internalType": "address",
          "name": "_newFactory",
          "type": "address"
        }
      ],
      "name": "setChallengeFactory",
      "outputs": [],
      "stateMutability": "nonpayable",
      "type": "function"
    },
    {
      "inputs": [
        {
          "internalType": "address",
          "name": "",
          "type": "address"
        },
        {
          "internalType": "address",
          "name": "",
          "type": "address"
        }
      ],
      "name": "totalLockedByToken",
      "outputs": [
        {
          "internalType": "uint256",
          "name": "",
          "type": "uint256"
        }
      ],
      "stateMutability": "view",
      "type": "function"
    },
    {
      "inputs": [
        {
          "internalType": "address",
          "name": "newOwner",
          "type": "address"
        }
      ],
      "name": "transferOwnership",
      "outputs": [],
      "stateMutability": "nonpayable",
      "type": "function"
    },
    {
      "inputs": [
        {
          "internalType": "address",
          "name": "from",
          "type": "address"
        },
        {
          "internalType": "address",
          "name": "to",
          "type": "address"
        },
        {
          "internalType": "address",
          "name": "token",
          "type": "address"
        },
        {
          "internalType": "uint256",
          "name": "amount",
          "type": "uint256"
        },
        {
          "internalType": "uint256",
          "name": "challengeId",
          "type": "uint256"
        }
      ],
      "name": "transferStake",
      "outputs": [],
      "stateMutability": "nonpayable",
      "type": "function"
    },
    {
      "stateMutability": "payable",
      "type": "receive"
    }
  ],
  "bytecode": "0x60803461010b57601f610fd038819003918201601f19168301916001600160401b038311848410176101105780849260209460405283398101031261010b57516001600160a01b038082169182900361010b57600160005533156100f25760018054336001600160a01b0319808316821790935560405192939091167f8be0079c531659141344cd1fd0a4f28419497f9722a3daafe3b4186f6b6457e0600080a382156100be57506002541617600255604051610ea990816101278239f35b62461bcd60e51b815260206004820152600f60248201526e496e76616c696420666163746f727960881b6044820152606490fd5b604051631e4fbdf760e01b815260006004820152602490fd5b600080fd5b634e487b7160e01b600052604160045260246000fdfe6080604081815260049182361015610022575b505050361561002057600080fd5b005b600090813560e01c908163023bf95814610b1c5750806312fa0aa0146108ed578063137b29881461087b5780635479da3d146103fd5780635c3d9dec146107d85780635dbaf68b146107af5780636b12afa01461060a578063715018a6146105ad5780638da5cb5b146105845780639d7d4b9614610446578063c84c7da8146103fd578063f2fde38b14610369578063f4887c7a1461010d5763ffac1a9503610012573461010a576100d336610bff565b9390825260205281812090815484101561010a57506020926100f491610c47565b905491519160018060a01b039160031b1c168152f35b80fd5b50903461036557608036600319011261036557610128610bce565b90610131610be9565b600254606435936001600160a01b03916044359183916101549083163314610c8b565b61015c610dcc565b16928315610333578290610171831515610ccf565b1693846102f7575b80519261018584610d10565b8584526020938481019084825283810190428252606081018a815260808201928c84528b8d5260058952868d209485546801000000000000000096878210156102e257906101d891600182018155610c15565b9490946102cf57908f94939291889051166bffffffffffffffffffffffff60a01b855416178455516001840155516002830155516003820155019051151560ff8019835416911617905585895260038552828920878a5285528289208054908582018092116102bc57558789528985528289208054918210156102a9578161028a9160017f1d80c2b0b59d2f1543a8b483e392137e35f1d5ebfffcb3ad3a85c07a756363139897969594018155610c47565b819291549060031b9188831b921b191617905551908152a46001815580f35b634e487b7160e01b8a5260418b5260248afd5b634e487b7160e01b8b5260118c5260248bfd5b8f8f80602492634e487b7160e01b825252fd5b508f8f6041602492634e487b7160e01b835252fd5b61032e81516323b872dd60e01b60208201523360248201523060448201528360648201526064815261032881610d10565b86610d64565b610179565b845162461bcd60e51b81526020818a0152600c60248201526b24b73b30b634b2103ab9b2b960a11b6044820152606490fd5b5080fd5b5091346103f95760203660031901126103f957610384610bce565b9061038d610c5f565b6001600160a01b039182169283156103e3575050600154826bffffffffffffffffffffffff60a01b821617600155167f8be0079c531659141344cd1fd0a4f28419497f9722a3daafe3b4186f6b6457e08380a380f35b51631e4fbdf760e01b8152908101849052602490fd5b8280fd5b5090346103655780600319360112610365578060209261041b610bce565b610423610be9565b6001600160a01b0391821683526003865283832091168252845220549051908152f35b50823461036557602090816003193601126103f957803583526005918281528484209283549067ffffffffffffffff821161057157865192959361048e83831b880185610d42565b82845286840190819686528786209086925b85841061051557505050505050845193808501918186525180925285850193925b8281106104ce5785850386f35b835180516001600160a01b03168652808301518684015287810151888701526060808201519087015260809081015115159086015260a090940193928101926001016104c1565b848a6001928d809d9a9b9d519061052b82610d10565b858060a01b03885416825285880154848301526002880154908201526003870154606082015260ff868801541615156080820152815201930193019291989695986104a0565b634e487b7160e01b865260418452602486fd5b50903461036557816003193601126103655760015490516001600160a01b039091168152602090f35b503461010a578060031936011261010a576105c6610c5f565b600180546001600160a01b0319811690915581906001600160a01b03167f8be0079c531659141344cd1fd0a4f28419497f9722a3daafe3b4186f6b6457e08280a380f35b5091346103f957816003193601126103f9578035602480359267ffffffffffffffff938481116107ab57366023820112156107ab57808201359485116107ab57600595368487891b840101116107a75760018060a09894939597981b0361067681600254163314610c8b565b61067e610dcc565b858952602092848452828a20988a985b818a1061069d578b6001815580f35b808a88999a9b9c9d981b8a01013598848a1698898b036107a357888e5b5481101561078357906106fb8f959493928e8e8e8e8e8e8e8e6106de8f8a90610c15565b5090810160ff81541615610705575b505050505050505050610def565b90919293946106ba565b7f607e275a4cdbfc07ae250ee663261b358db8397a819037f055b7c5d9730a821b95838354169061073e6001928386019b8c5491610e21565b610760868b54928b815260038a528181208888541682528a5220918254610e14565b905560ff19825416179055541694549051908152a48e8e8e8e8e8e8e38806106ed565b50929a995092969b9a61079891949850610def565b98909591969261068e565b8880fd5b8780fd5b8680fd5b50903461036557816003193601126103655760025490516001600160a01b039091168152602090f35b5091346103f95760203660031901126103f9576107f3610bce565b6107fb610c5f565b6001600160a01b0316918215610846575050600280546001600160a01b031916821790557fb9a1f6d01069d240a4bebe47b464192f46dc977bf49ec60b388e25e4db1a88af8280a280f35b906020606492519162461bcd60e51b8352820152600f60248201526e496e76616c696420666163746f727960881b6044820152fd5b509190346103f95761088c36610bff565b93908152600560205281812090815485101561010a575060a0936108af91610c15565b50600180851b038154169260018201549260ff6002840154926003850154940154169381519586526020860152840152606083015215156080820152f35b5091346103f95760a03660031901126103f957610908610bce565b610910610be9565b6001600160a01b0360443581811695919392908690036107ab57836064359361093e82600254163314610c8b565b610946610dcc565b16938415610aea578116948515610aba57610962841515610ccf565b84885260209160038352838920888a528352838920610982868254610e14565b905587610a80575087808080878a5af13d15610a7b573d67ffffffffffffffff8111610a68578451906109be601f8201601f1916860183610d42565b815289843d92013e5b15610a31575091606060a0927fea5d9bc662aefe5f02d7f0544d609f56eb4d7273187209c55fd79fdc1516fe98945b815193845260843590840152820152601460608201527310da185b1b195b99d9481cd95d1d1b195b595b9d60621b6080820152a46001815580f35b915162461bcd60e51b8152918201526013602482015272115512081d1c985b9cd9995c8819985a5b1959606a1b6044820152606490fd5b634e487b7160e01b8a526041835260248afd5b6109c7565b60609150928492610ab57fea5d9bc662aefe5f02d7f0544d609f56eb4d7273187209c55fd79fdc1516fe989660a0968b610e21565b6109f6565b606490602084519162461bcd60e51b8352820152600a602482015269496e76616c696420746f60b01b6044820152fd5b825162461bcd60e51b8152602081880152600c60248201526b496e76616c69642066726f6d60a01b6044820152606490fd5b905083346103f95760209081600319360112610bca5780949391943582528452828120918254808252858201908194845286842090845b818110610bad5750505081610b69910382610d42565b83519485948186019282875251809352850193925b828110610b8d57505050500390f35b83516001600160a01b031685528695509381019392810192600101610b7e565b82546001600160a01b031684529288019260019283019201610b53565b8380fd5b600435906001600160a01b0382168203610be457565b600080fd5b602435906001600160a01b0382168203610be457565b6040906003190112610be4576004359060243590565b8054821015610c31576000526005602060002091020190600090565b634e487b7160e01b600052603260045260246000fd5b8054821015610c315760005260206000200190600090565b6001546001600160a01b03163303610c7357565b60405163118cdaa760e01b8152336004820152602490fd5b15610c9257565b60405162461bcd60e51b81526020600482015260156024820152744f6e6c79204368616c6c656e6765466163746f727960581b6044820152606490fd5b15610cd657565b60405162461bcd60e51b81526020600482015260126024820152710416d6f756e74206d757374206265203e20360741b6044820152606490fd5b60a0810190811067ffffffffffffffff821117610d2c57604052565b634e487b7160e01b600052604160045260246000fd5b90601f8019910116810190811067ffffffffffffffff821117610d2c57604052565b906000602091828151910182855af115610dc0576000513d610db757506001600160a01b0381163b155b610d955750565b604051635274afe760e01b81526001600160a01b039091166004820152602490fd5b60011415610d8e565b6040513d6000823e3d90fd5b600260005414610ddd576002600055565b604051633ee5aeb560e01b8152600490fd5b6000198114610dfe5760010190565b634e487b7160e01b600052601160045260246000fd5b91908203918211610dfe57565b60405163a9059cbb60e01b60208201526001600160a01b039092166024830152604480830193909352918152608081019167ffffffffffffffff831182841017610d2c57610e7192604052610d64565b56fea2646970667358221220997affd971a1a9582e7d3737da8dcd825aa8c5110ac53c69454e1dc06f734cdf64736f6c63430008140033",
  "linkReferences": {},
  "deployedLinkReferences": {}
}